{
  "contractName": "DoctorRegistration",
  "abi": [
    {
      "anonymous": false,
      "inputs": [
        {
          "indexed": true,
          "internalType": "address",
          "name": "doctorAddress",
          "type": "address"
        },
        {
          "indexed": false,
          "internalType": "string",
          "name": "doctorName",
          "type": "string"
        }
      ],
      "name": "DoctorRegistered",
      "type": "event"
    },
    {
      "inputs": [
        {
          "internalType": "address",
          "name": "_doctorAddress",
          "type": "address"
        },
        {
          "internalType": "string",
          "name": "_doctorName",
          "type": "string"
        },
        {
          "internalType": "string",
          "name": "_hospitalName",
          "type": "string"
        },
        {
          "internalType": "string",
          "name": "_dateOfBirth",
          "type": "string"
        },
        {
          "internalType": "string",
          "name": "_gender",
          "type": "string"
        },
        {
          "internalType": "string",
          "name": "_phoneNumber",
          "type": "string"
        },
        {
          "internalType": "string",
          "name": "_specialization",
          "type": "string"
        },
        {
          "internalType": "string",
          "name": "_department",
          "type": "string"
        },
        {
          "internalType": "string",
          "name": "_designation",
          "type": "string"
        },
        {
          "internalType": "string",
          "name": "_bmdcNumber",
          "type": "string"
        }
      ],
      "name": "registerDoctor",
      "outputs": [],
      "stateMutability": "nonpayable",
      "type": "function"
    },
    {
      "inputs": [
        {
          "internalType": "address",
          "name": "_doctorAddress",
          "type": "address"
        }
      ],
      "name": "getDoctorDetails",
      "outputs": [
        {
          "components": [
            {
              "internalType": "address",
              "name": "doctorAddress",
              "type": "address"
            },
            {
              "internalType": "string",
              "name": "doctorName",
              "type": "string"
            },
            {
              "internalType": "string",
              "name": "hospitalName",
              "type": "string"
            },
            {
              "internalType": "string",
              "name": "dateOfBirth",
              "type": "string"
            },
            {
              "internalType": "string",
              "name": "gender",
              "type": "string"
            },
            {
              "internalType": "string",
              "name": "phoneNumber",
              "type": "string"
            },
            {
              "internalType": "string",
              "name": "specialization",
              "type": "string"
            },
            {
              "internalType": "string",
              "name": "department",
              "type": "string"
            },
            {
              "internalType": "string",
              "name": "designation",
              "type": "string"
            },
            {
              "internalType": "string",
              "name": "bmdcNumber",
              "type": "string"
            }
          ],
          "internalType": "struct DoctorRegistration.Doctor",
          "name": "",
          "type": "tuple"
        }
      ],
      "stateMutability": "view",
      "type": "function"
    },
    {
      "inputs": [
        {
          "internalType": "address",
          "name": "_doctorAddress",
          "type": "address"
        }
      ],
      "name": "isRegisteredDoctor",
      "outputs": [
        {
          "internalType": "bool",
          "name": "",
          "type": "bool"
        }
      ],
      "stateMutability": "view",
      "type": "function"
    }
  ],
  "bytecode": "0x608060405234801561001057600080fd5b50610de9806100206000396000f3fe608060405234801561001057600080fd5b50600436106100415760003560e01c806397bff33814610046578063bab90dbd14610087578063d4953627146100a7575b600080fd5b6100726100543660046108a7565b6001600160a01b031660009081526001602052604090205460ff1690565b60405190151581526020015b60405180910390f35b61009a6100953660046108a7565b6100bc565b60405161007e919061090f565b6100ba6100b5366004610ae0565b610676565b005b61011b60405180610140016040528060006001600160a01b031681526020016060815260200160608152602001606081526020016060815260200160608152602001606081526020016060815260200160608152602001606081525090565b6001600160a01b038083166000908152602081815260409182902082516101408101909352805490931682526001830180549293929184019161015d90610c57565b80601f016020809104026020016040519081016040528092919081815260200182805461018990610c57565b80156101d65780601f106101ab576101008083540402835291602001916101d6565b820191906000526020600020905b8154815290600101906020018083116101b957829003601f168201915b505050505081526020016002820180546101ef90610c57565b80601f016020809104026020016040519081016040528092919081815260200182805461021b90610c57565b80156102685780601f1061023d57610100808354040283529160200191610268565b820191906000526020600020905b81548152906001019060200180831161024b57829003601f168201915b5050505050815260200160038201805461028190610c57565b80601f01602080910402602001604051908101604052809291908181526020018280546102ad90610c57565b80156102fa5780601f106102cf576101008083540402835291602001916102fa565b820191906000526020600020905b8154815290600101906020018083116102dd57829003601f168201915b5050505050815260200160048201805461031390610c57565b80601f016020809104026020016040519081016040528092919081815260200182805461033f90610c57565b801561038c5780601f106103615761010080835404028352916020019161038c565b820191906000526020600020905b81548152906001019060200180831161036f57829003601f168201915b505050505081526020016005820180546103a590610c57565b80601f01602080910402602001604051908101604052809291908181526020018280546103d190610c57565b801561041e5780601f106103f35761010080835404028352916020019161041e565b820191906000526020600020905b81548152906001019060200180831161040157829003601f168201915b5050505050815260200160068201805461043790610c57565b80601f016020809104026020016040519081016040528092919081815260200182805461046390610c57565b80156104b05780601f10610485576101008083540402835291602001916104b0565b820191906000526020600020905b81548152906001019060200180831161049357829003601f168201915b505050505081526020016007820180546104c990610c57565b80601f01602080910402602001604051908101604052809291908181526020018280546104f590610c57565b80156105425780601f1061051757610100808354040283529160200191610542565b820191906000526020600020905b81548152906001019060200180831161052557829003601f168201915b5050505050815260200160088201805461055b90610c57565b80601f016020809104026020016040519081016040528092919081815260200182805461058790610c57565b80156105d45780601f106105a9576101008083540402835291602001916105d4565b820191906000526020600020905b8154815290600101906020018083116105b757829003601f168201915b505050505081526020016009820180546105ed90610c57565b80601f016020809104026020016040519081016040528092919081815260200182805461061990610c57565b80156106665780601f1061063b57610100808354040283529160200191610666565b820191906000526020600020905b81548152906001019060200180831161064957829003601f168201915b5050505050815250509050919050565b6001600160a01b038a1660009081526001602052604090205460ff16156106e35760405162461bcd60e51b815260206004820152601960248201527f446f63746f7220616c7265616479207265676973746572656400000000000000604482015260640160405180910390fd5b60408051610140810182526001600160a01b038c811680835260208084018e81528486018e9052606085018d9052608085018c905260a085018b905260c085018a905260e0850189905261010085018890526101208501879052600092835290829052939020825181546001600160a01b031916921691909117815591519091829160018201906107749082610ce0565b50604082015160028201906107899082610ce0565b506060820151600382019061079e9082610ce0565b50608082015160048201906107b39082610ce0565b5060a082015160058201906107c89082610ce0565b5060c082015160068201906107dd9082610ce0565b5060e082015160078201906107f29082610ce0565b5061010082015160088201906108089082610ce0565b50610120820151600982019061081e9082610ce0565b5050506001600160a01b038b16600081815260016020819052604091829020805460ff19169091179055517f20481b8112b5bf4734f45a473c373db9df6a79ce946cdc0e7dbc22b4f7d7f98690610876908d90610da0565b60405180910390a25050505050505050505050565b80356001600160a01b03811681146108a257600080fd5b919050565b6000602082840312156108b957600080fd5b6108c28261088b565b9392505050565b6000815180845260005b818110156108ef576020818501810151868301820152016108d3565b506000602082860101526020601f19601f83011685010191505092915050565b602081526109296020820183516001600160a01b03169052565b600060208301516101408060408501526109476101608501836108c9565b91506040850151601f198086850301606087015261096584836108c9565b9350606087015191508086850301608087015261098284836108c9565b935060808701519150808685030160a087015261099f84836108c9565b935060a08701519150808685030160c08701526109bc84836108c9565b935060c08701519150808685030160e08701526109d984836108c9565b935060e087015191506101008187860301818801526109f885846108c9565b945080880151925050610120818786030181880152610a1785846108c9565b908801518782039092018488015293509050610a3383826108c9565b9695505050505050565b634e487b7160e01b600052604160045260246000fd5b600082601f830112610a6457600080fd5b813567ffffffffffffffff80821115610a7f57610a7f610a3d565b604051601f8301601f19908116603f01168101908282118183101715610aa757610aa7610a3d565b81604052838152866020858801011115610ac057600080fd5b836020870160208301376000602085830101528094505050505092915050565b6000806000806000806000806000806101408b8d031215610b0057600080fd5b610b098b61088b565b995060208b013567ffffffffffffffff80821115610b2657600080fd5b610b328e838f01610a53565b9a5060408d0135915080821115610b4857600080fd5b610b548e838f01610a53565b995060608d0135915080821115610b6a57600080fd5b610b768e838f01610a53565b985060808d0135915080821115610b8c57600080fd5b610b988e838f01610a53565b975060a08d0135915080821115610bae57600080fd5b610bba8e838f01610a53565b965060c08d0135915080821115610bd057600080fd5b610bdc8e838f01610a53565b955060e08d0135915080821115610bf257600080fd5b610bfe8e838f01610a53565b94506101008d0135915080821115610c1557600080fd5b610c218e838f01610a53565b93506101208d0135915080821115610c3857600080fd5b50610c458d828e01610a53565b9150509295989b9194979a5092959850565b600181811c90821680610c6b57607f821691505b602082108103610c8b57634e487b7160e01b600052602260045260246000fd5b50919050565b601f821115610cdb57600081815260208120601f850160051c81016020861015610cb85750805b601f850160051c820191505b81811015610cd757828155600101610cc4565b5050505b505050565b815167ffffffffffffffff811115610cfa57610cfa610a3d565b610d0e81610d088454610c57565b84610c91565b602080601f831160018114610d435760008415610d2b5750858301515b600019600386901b1c1916600185901b178555610cd7565b600085815260208120601f198616915b82811015610d7257888601518255948401946001909101908401610d53565b5085821015610d905787850151600019600388901b60f8161c191681555b5050505050600190811b01905550565b6020815260006108c260208301846108c956fea26469706673582212204edd47f587288040ca13f9a262a41cfaf3fa55e5d1ea37236eb6dec4628abdc264736f6c63430008130033",
  "immutableReferences": {},
  "source": "// SPDX-License-Identifier: MIT\npragma solidity ^0.8.19;\n\ncontract DoctorRegistration {\n    struct Doctor {\n        address doctorAddress; // Add the Ethereum address to the struct\n        string doctorName;\n        string hospitalName;\n        string dateOfBirth;\n        string gender;\n        string phoneNumber;\n        string specialization;\n        string department;\n        string designation;\n        string bmdcNumber;\n    }\n\n    mapping(address => Doctor) private doctors;\n    mapping(address => bool) private isDoctorRegistered;\n\n    event DoctorRegistered(address indexed doctorAddress, string doctorName);\n\n    function registerDoctor(\n        address _doctorAddress,\n        string memory _doctorName,\n        string memory _hospitalName,\n        string memory _dateOfBirth,\n        string memory _gender,\n        string memory _phoneNumber,\n        string memory _specialization,\n        string memory _department,\n        string memory _designation,\n        string memory _bmdcNumber\n    ) external {\n        require(\n            !isDoctorRegistered[_doctorAddress],\n            \"Doctor already registered\"\n        );\n\n        Doctor memory newDoctor = Doctor({\n            doctorAddress: _doctorAddress,\n            doctorName: _doctorName,\n            hospitalName: _hospitalName,\n            dateOfBirth: _dateOfBirth,\n            gender: _gender,\n            phoneNumber: _phoneNumber,\n            specialization: _specialization,\n            department: _department,\n            designation: _designation,\n            bmdcNumber: _bmdcNumber\n        });\n\n        doctors[_doctorAddress] = newDoctor;\n        isDoctorRegistered[_doctorAddress] = true;\n\n        emit DoctorRegistered(_doctorAddress, _doctorName);\n    }\n\n    function getDoctorDetails(\n        address _doctorAddress\n    ) external view returns (Doctor memory) {\n        return doctors[_doctorAddress];\n    }\n\n    function isRegisteredDoctor(\n        address _doctorAddress\n    ) external view returns (bool) {\n        return isDoctorRegistered[_doctorAddress];\n    }\n}\n",
  "sourcePath": "D:\\smart health blockchain system\\src\\contracts\\DoctorRegistration.sol",
  "compiler": {
    "name": "solc",
    "version": "0.8.19+commit.7dd6d404.Emscripten.clang"
  },
  "schemaVersion": "3.4.16",
  "updatedAt": "2024-12-16T06:41:55.584Z",
  "devdoc": {
    "kind": "dev",
    "methods": {},
    "version": 1
  },
  "userdoc": {
    "kind": "user",
    "methods": {},
    "version": 1
  }
}