{
  "contractName": "DoctorAppointment",
  "abi": [
    {
      "inputs": [
        {
          "internalType": "uint256",
          "name": "",
          "type": "uint256"
        }
      ],
      "name": "appointments",
      "outputs": [
        {
          "internalType": "address",
          "name": "doctor",
          "type": "address"
        },
        {
          "internalType": "address",
          "name": "patient",
          "type": "address"
        },
        {
          "internalType": "uint256",
          "name": "time",
          "type": "uint256"
        },
        {
          "internalType": "string",
          "name": "date",
          "type": "string"
        },
        {
          "internalType": "string",
          "name": "name",
          "type": "string"
        }
      ],
      "stateMutability": "view",
      "type": "function"
    },
    {
      "inputs": [
        {
          "internalType": "address",
          "name": "",
          "type": "address"
        },
        {
          "internalType": "string",
          "name": "",
          "type": "string"
        },
        {
          "internalType": "uint256",
          "name": "",
          "type": "uint256"
        }
      ],
      "name": "doctorSchedule",
      "outputs": [
        {
          "internalType": "uint256",
          "name": "",
          "type": "uint256"
        }
      ],
      "stateMutability": "view",
      "type": "function"
    },
    {
      "inputs": [
        {
          "internalType": "address",
          "name": "_doctorAddress",
          "type": "address"
        },
        {
          "internalType": "string",
          "name": "_date",
          "type": "string"
        },
        {
          "internalType": "uint256",
          "name": "_time",
          "type": "uint256"
        },
        {
          "internalType": "address",
          "name": "_patientAddress",
          "type": "address"
        },
        {
          "internalType": "string",
          "name": "_name",
          "type": "string"
        }
      ],
      "name": "bookAppointment",
      "outputs": [],
      "stateMutability": "nonpayable",
      "type": "function"
    },
    {
      "inputs": [
        {
          "internalType": "address",
          "name": "_doctorAddress",
          "type": "address"
        }
      ],
      "name": "getAppointmentsForDoctor",
      "outputs": [
        {
          "components": [
            {
              "internalType": "address",
              "name": "doctor",
              "type": "address"
            },
            {
              "internalType": "address",
              "name": "patient",
              "type": "address"
            },
            {
              "internalType": "uint256",
              "name": "time",
              "type": "uint256"
            },
            {
              "internalType": "string",
              "name": "date",
              "type": "string"
            },
            {
              "internalType": "string",
              "name": "name",
              "type": "string"
            }
          ],
          "internalType": "struct DoctorAppointment.Appointment[]",
          "name": "",
          "type": "tuple[]"
        }
      ],
      "stateMutability": "view",
      "type": "function"
    },
    {
      "inputs": [
        {
          "internalType": "address",
          "name": "_doctorAddress",
          "type": "address"
        },
        {
          "internalType": "string",
          "name": "_date",
          "type": "string"
        }
      ],
      "name": "getBookedSlotsForDoctor",
      "outputs": [
        {
          "internalType": "uint256[]",
          "name": "",
          "type": "uint256[]"
        }
      ],
      "stateMutability": "view",
      "type": "function"
    },
    {
      "inputs": [
        {
          "internalType": "address",
          "name": "_doctorAddress",
          "type": "address"
        },
        {
          "internalType": "string",
          "name": "_date",
          "type": "string"
        },
        {
          "internalType": "uint256",
          "name": "_time",
          "type": "uint256"
        }
      ],
      "name": "removeAppointment",
      "outputs": [],
      "stateMutability": "nonpayable",
      "type": "function"
    }
  ],
  "bytecode": "0x608060405234801561001057600080fd5b50611361806100206000396000f3fe608060405234801561001057600080fd5b50600436106100625760003560e01c806312dc9013146100675780631c688f5d14610094578063beb54453146100b4578063d81f638c146100c9578063df16a3a4146100dc578063f9615013146100fd575b600080fd5b61007a610075366004610c42565b61011d565b60405161008b959493929190610cab565b60405180910390f35b6100a76100a2366004610dbb565b61027f565b60405161008b9190610e09565b6100c76100c2366004610e4d565b610313565b005b6100c76100d7366004610ea4565b6106a2565b6100ef6100ea366004610e4d565b6108aa565b60405190815260200161008b565b61011061010b366004610f33565b6108f6565b60405161008b9190610f55565b6001818154811061012d57600080fd5b600091825260209091206005909102018054600182015460028301546003840180546001600160a01b03948516965092909316939092909161016e9061100b565b80601f016020809104026020016040519081016040528092919081815260200182805461019a9061100b565b80156101e75780601f106101bc576101008083540402835291602001916101e7565b820191906000526020600020905b8154815290600101906020018083116101ca57829003601f168201915b5050505050908060040180546101fc9061100b565b80601f01602080910402602001604051908101604052809291908181526020018280546102289061100b565b80156102755780601f1061024a57610100808354040283529160200191610275565b820191906000526020600020905b81548152906001019060200180831161025857829003601f168201915b5050505050905085565b6060600080846001600160a01b03166001600160a01b03168152602001908152602001600020826040516102b39190611045565b908152604080519182900360209081018320805480830285018301909352828452919083018282801561030557602002820191906000526020600020905b8154815260200190600101908083116102f1575b505050505090505b92915050565b6001600160a01b0383166000908152602081905260408082209051610339908590611045565b908152602001604051809103902090506000805b8254811015610405578383828154811061036957610369611061565b9060005260206000200154036103f357825483906103899060019061108d565b8154811061039957610399611061565b90600052602060002001548382815481106103b6576103b6611061565b9060005260206000200181905550828054806103d4576103d46110a0565b6001900381819060005260206000200160009055905560019150610405565b806103fd816110b6565b91505061034d565b50806104725760405162461bcd60e51b815260206004820152603160248201527f4e6f206170706f696e746d656e7420666f756e6420666f72207468652067697660448201527032b7103230ba329030b732103a34b6b29760791b60648201526084015b60405180910390fd5b60005b60015481101561069a57856001600160a01b03166001828154811061049c5761049c611061565b60009182526020909120600590910201546001600160a01b03161480156105315750846040516020016104cf9190611045565b60405160208183030381529060405280519060200120600182815481106104f8576104f8611061565b906000526020600020906005020160030160405160200161051991906110cf565b60405160208183030381529060405280519060200120145b80156105605750836001828154811061054c5761054c611061565b906000526020600020906005020160020154145b15610688576001805461057490829061108d565b8154811061058457610584611061565b9060005260206000209060050201600182815481106105a5576105a5611061565b60009182526020909120825460059092020180546001600160a01b039283166001600160a01b03199182161782556001808501549083018054919094169116179091556002808301549082015560038082019061060490840182611190565b5060048181019061061790840182611190565b50905050600180548061062c5761062c6110a0565b60008281526020812060056000199093019283020180546001600160a01b03199081168255600182018054909116905560028101829055906106716003830182610bec565b61067f600483016000610bec565b5050905561069a565b80610692816110b6565b915050610475565b505050505050565b6001600160a01b03851660009081526020819052604080822090516106c8908790611045565b9081526020016040518091039020905060005b815481101561076157848282815481106106f7576106f7611061565b90600052602060002001540361074f5760405162461bcd60e51b815260206004820152601c60248201527f5468697320736c6f7420697320616c726561647920626f6f6b656421000000006044820152606401610469565b80610759816110b6565b9150506106db565b50805460018181018355600083815260208082209093018790556040805160a0810182526001600160a01b03808c168252888116958201958652918101898152606082018b8152608083018990528554808701875595909452815160059095027fb10e2d527612073b26eecdfd717e6a320cf44b4afac2b0732d9fcbe2b7fa0cf6810180549685166001600160a01b031997881617815596517fb10e2d527612073b26eecdfd717e6a320cf44b4afac2b0732d9fcbe2b7fa0cf7820180549190951696169590951790925590517fb10e2d527612073b26eecdfd717e6a320cf44b4afac2b0732d9fcbe2b7fa0cf884015590519092839290917fb10e2d527612073b26eecdfd717e6a320cf44b4afac2b0732d9fcbe2b7fa0cf9909101906108899082611271565b506080820151600482019061089e9082611271565b50505050505050505050565b6000602081815284825260409091208351808501830180519281529083019285019290922091528054829081106108e057600080fd5b9060005260206000200160009250925050505481565b60606000805b60015481101561096257836001600160a01b03166001828154811061092357610923611061565b60009182526020909120600590910201546001600160a01b031603610950578161094c816110b6565b9250505b8061095a816110b6565b9150506108fc565b5060008167ffffffffffffffff81111561097e5761097e610d18565b6040519080825280602002602001820160405280156109d657816020015b6040805160a081018252600080825260208083018290529282015260608082018190526080820152825260001990920191018161099c5790505b5090506000805b600154811015610be257856001600160a01b031660018281548110610a0457610a04611061565b60009182526020909120600590910201546001600160a01b031603610bd05760018181548110610a3657610a36611061565b60009182526020918290206040805160a081018252600590930290910180546001600160a01b03908116845260018201541693830193909352600283015490820152600382018054919291606084019190610a909061100b565b80601f0160208091040260200160405190810160405280929190818152602001828054610abc9061100b565b8015610b095780601f10610ade57610100808354040283529160200191610b09565b820191906000526020600020905b815481529060010190602001808311610aec57829003601f168201915b50505050508152602001600482018054610b229061100b565b80601f0160208091040260200160405190810160405280929190818152602001828054610b4e9061100b565b8015610b9b5780601f10610b7057610100808354040283529160200191610b9b565b820191906000526020600020905b815481529060010190602001808311610b7e57829003601f168201915b505050505081525050838381518110610bb657610bb6611061565b60200260200101819052508180610bcc906110b6565b9250505b80610bda816110b6565b9150506109dd565b5090949350505050565b508054610bf89061100b565b6000825580601f10610c08575050565b601f016020900490600052602060002090810190610c269190610c29565b50565b5b80821115610c3e5760008155600101610c2a565b5090565b600060208284031215610c5457600080fd5b5035919050565b60005b83811015610c76578181015183820152602001610c5e565b50506000910152565b60008151808452610c97816020860160208601610c5b565b601f01601f19169290920160200192915050565b6001600160a01b038681168252851660208201526040810184905260a060608201819052600090610cde90830185610c7f565b8281036080840152610cf08185610c7f565b98975050505050505050565b80356001600160a01b0381168114610d1357600080fd5b919050565b634e487b7160e01b600052604160045260246000fd5b600082601f830112610d3f57600080fd5b813567ffffffffffffffff80821115610d5a57610d5a610d18565b604051601f8301601f19908116603f01168101908282118183101715610d8257610d82610d18565b81604052838152866020858801011115610d9b57600080fd5b836020870160208301376000602085830101528094505050505092915050565b60008060408385031215610dce57600080fd5b610dd783610cfc565b9150602083013567ffffffffffffffff811115610df357600080fd5b610dff85828601610d2e565b9150509250929050565b6020808252825182820181905260009190848201906040850190845b81811015610e4157835183529284019291840191600101610e25565b50909695505050505050565b600080600060608486031215610e6257600080fd5b610e6b84610cfc565b9250602084013567ffffffffffffffff811115610e8757600080fd5b610e9386828701610d2e565b925050604084013590509250925092565b600080600080600060a08688031215610ebc57600080fd5b610ec586610cfc565b9450602086013567ffffffffffffffff80821115610ee257600080fd5b610eee89838a01610d2e565b955060408801359450610f0360608901610cfc565b93506080880135915080821115610f1957600080fd5b50610f2688828901610d2e565b9150509295509295909350565b600060208284031215610f4557600080fd5b610f4e82610cfc565b9392505050565b60006020808301818452808551808352604092508286019150828160051b87010184880160005b83811015610ffd57888303603f19018552815180516001600160a01b039081168552888201511688850152868101518785015260608082015160a08287018190529190610fcb83880182610c7f565b9250505060808083015192508582038187015250610fe98183610c7f565b968901969450505090860190600101610f7c565b509098975050505050505050565b600181811c9082168061101f57607f821691505b60208210810361103f57634e487b7160e01b600052602260045260246000fd5b50919050565b60008251611057818460208701610c5b565b9190910192915050565b634e487b7160e01b600052603260045260246000fd5b634e487b7160e01b600052601160045260246000fd5b8181038181111561030d5761030d611077565b634e487b7160e01b600052603160045260246000fd5b6000600182016110c8576110c8611077565b5060010190565b60008083546110dd8161100b565b600182811680156110f5576001811461110a57611139565b60ff1984168752821515830287019450611139565b8760005260208060002060005b858110156111305781548a820152908401908201611117565b50505082870194505b50929695505050505050565b601f82111561118b57600081815260208120601f850160051c8101602086101561116c5750805b601f850160051c820191505b8181101561069a57828155600101611178565b505050565b81810361119b575050565b6111a5825461100b565b67ffffffffffffffff8111156111bd576111bd610d18565b6111d1816111cb845461100b565b84611145565b6000601f82116001811461120557600083156111ed5750848201545b600019600385901b1c1916600184901b17845561126a565b600085815260209020601f19841690600086815260209020845b8381101561123f578286015482556001958601959091019060200161121f565b508583101561125d5781850154600019600388901b60f8161c191681555b50505060018360011b0184555b5050505050565b815167ffffffffffffffff81111561128b5761128b610d18565b611299816111cb845461100b565b602080601f8311600181146112ce57600084156112b65750858301515b600019600386901b1c1916600185901b17855561069a565b600085815260208120601f198616915b828110156112fd578886015182559484019460019091019084016112de565b508582101561131b5787850151600019600388901b60f8161c191681555b5050505050600190811b0190555056fea2646970667358221220ca31644416f44e66f5bc22253b1332c992a38ffb49661f279e7fac6725b6ab5564736f6c63430008130033",
  "immutableReferences": {},
  "source": "// SPDX-License-Identifier: MIT\npragma solidity ^0.8.19;\n\ncontract DoctorAppointment {\n    struct Appointment {\n        address doctor;\n        address patient;\n        uint256 time;\n        string date;\n        string name;\n    }\n\n    // A mapping from doctor's address and date to the array of booked times.\n    mapping(address => mapping(string => uint256[])) public doctorSchedule;\n\n    // A list of all appointments.\n    Appointment[] public appointments;\n\n    function bookAppointment(\n        address _doctorAddress,\n        string memory _date,\n        uint256 _time,\n        address _patientAddress,\n        string memory _name\n    ) public {\n        uint256[] storage times = doctorSchedule[_doctorAddress][_date];\n        for (uint i = 0; i < times.length; i++) {\n            require(times[i] != _time, \"This slot is already booked!\");\n        }\n\n        times.push(_time);\n\n        Appointment memory newAppointment = Appointment({\n            doctor: _doctorAddress,\n            patient: _patientAddress,\n            time: _time,\n            date: _date,\n            name: _name\n        });\n\n        appointments.push(newAppointment);\n    }\n\n    function getAppointmentsForDoctor(\n        address _doctorAddress\n    ) public view returns (Appointment[] memory) {\n        uint count = 0;\n        for (uint i = 0; i < appointments.length; i++) {\n            if (appointments[i].doctor == _doctorAddress) {\n                count++;\n            }\n        }\n\n        Appointment[] memory doctorAppointments = new Appointment[](count);\n        uint j = 0;\n        for (uint i = 0; i < appointments.length; i++) {\n            if (appointments[i].doctor == _doctorAddress) {\n                doctorAppointments[j] = appointments[i];\n                j++;\n            }\n        }\n        return doctorAppointments;\n    }\n\n    // Additional function to fetch booked slots for a doctor on a specific date\n    function getBookedSlotsForDoctor(\n        address _doctorAddress,\n        string memory _date\n    ) public view returns (uint256[] memory) {\n        return doctorSchedule[_doctorAddress][_date];\n    }\n\n    function removeAppointment(\n        address _doctorAddress,\n        string memory _date,\n        uint256 _time\n    ) public {\n        uint256[] storage times = doctorSchedule[_doctorAddress][_date];\n        bool timeFound = false;\n        for (uint i = 0; i < times.length; i++) {\n            if (times[i] == _time) {\n                times[i] = times[times.length - 1];\n                times.pop();\n                timeFound = true;\n                break;\n            }\n        }\n\n        require(timeFound, \"No appointment found for the given date and time.\");\n\n        // Removing the appointment from the appointments array\n        for (uint i = 0; i < appointments.length; i++) {\n            if (\n                appointments[i].doctor == _doctorAddress &&\n                keccak256(abi.encodePacked(appointments[i].date)) ==\n                keccak256(abi.encodePacked(_date)) &&\n                appointments[i].time == _time\n            ) {\n                appointments[i] = appointments[appointments.length - 1];\n                appointments.pop();\n                break;\n            }\n        }\n    }\n}\n",
  "sourcePath": "D:\\smart health blockchain system\\src\\contracts\\DoctorAppointment.sol",
  "compiler": {
    "name": "solc",
    "version": "0.8.19+commit.7dd6d404.Emscripten.clang"
  },
  "schemaVersion": "3.4.16",
  "updatedAt": "2024-12-16T06:41:55.577Z",
  "devdoc": {
    "kind": "dev",
    "methods": {},
    "version": 1
  },
  "userdoc": {
    "kind": "user",
    "methods": {},
    "version": 1
  }
}