{
  "contractName": "PatientRegistry",
  "abi": [
    {
      "anonymous": false,
      "inputs": [
        {
          "indexed": true,
          "internalType": "address",
          "name": "patientAddress",
          "type": "address"
        },
        {
          "indexed": false,
          "internalType": "string",
          "name": "name",
          "type": "string"
        }
      ],
      "name": "PatientRegistered",
      "type": "event"
    },
    {
      "inputs": [
        {
          "internalType": "address",
          "name": "",
          "type": "address"
        }
      ],
      "name": "isPatient",
      "outputs": [
        {
          "internalType": "bool",
          "name": "",
          "type": "bool"
        }
      ],
      "stateMutability": "view",
      "type": "function"
    },
    {
      "inputs": [
        {
          "internalType": "address",
          "name": "",
          "type": "address"
        }
      ],
      "name": "patients",
      "outputs": [
        {
          "internalType": "string",
          "name": "name",
          "type": "string"
        },
        {
          "internalType": "string",
          "name": "dateOfBirth",
          "type": "string"
        },
        {
          "internalType": "string",
          "name": "homeAddress",
          "type": "string"
        },
        {
          "internalType": "string",
          "name": "phoneNumber",
          "type": "string"
        },
        {
          "internalType": "address",
          "name": "walletAddress",
          "type": "address"
        },
        {
          "internalType": "string",
          "name": "gender",
          "type": "string"
        }
      ],
      "stateMutability": "view",
      "type": "function"
    },
    {
      "inputs": [
        {
          "internalType": "string",
          "name": "_name",
          "type": "string"
        },
        {
          "internalType": "string",
          "name": "_dateOfBirth",
          "type": "string"
        },
        {
          "internalType": "string",
          "name": "_homeAddress",
          "type": "string"
        },
        {
          "internalType": "string",
          "name": "_phoneNumber",
          "type": "string"
        },
        {
          "internalType": "address",
          "name": "_walletAddress",
          "type": "address"
        },
        {
          "internalType": "string",
          "name": "_gender",
          "type": "string"
        }
      ],
      "name": "registerPatient",
      "outputs": [],
      "stateMutability": "nonpayable",
      "type": "function"
    },
    {
      "inputs": [
        {
          "internalType": "address",
          "name": "_walletAddress",
          "type": "address"
        }
      ],
      "name": "isRegisteredPatient",
      "outputs": [
        {
          "internalType": "bool",
          "name": "",
          "type": "bool"
        }
      ],
      "stateMutability": "view",
      "type": "function"
    },
    {
      "inputs": [
        {
          "internalType": "address",
          "name": "_walletAddress",
          "type": "address"
        }
      ],
      "name": "givepermissioncreate",
      "outputs": [],
      "stateMutability": "nonpayable",
      "type": "function"
    },
    {
      "inputs": [
        {
          "internalType": "address",
          "name": "_walletAddress",
          "type": "address"
        }
      ],
      "name": "revokepermissioncreate",
      "outputs": [],
      "stateMutability": "nonpayable",
      "type": "function"
    },
    {
      "inputs": [
        {
          "internalType": "address",
          "name": "patientaddress",
          "type": "address"
        },
        {
          "internalType": "address",
          "name": "_walletAddress",
          "type": "address"
        }
      ],
      "name": "haspermission",
      "outputs": [
        {
          "internalType": "bool",
          "name": "",
          "type": "bool"
        }
      ],
      "stateMutability": "view",
      "type": "function"
    }
  ],
  "bytecode": "0x608060405234801561001057600080fd5b50610abb806100206000396000f3fe608060405234801561001057600080fd5b506004361061007d5760003560e01c80633c4f7a9d1161005b5780633c4f7a9d1461013d5780638f9c79ed14610169578063a7179ee91461018c578063ab3ac4ab1461019f57600080fd5b806303efe692146100825780630869cfbc146100c35780632d2760d8146100f1575b600080fd5b6100c161009036600461068d565b3360009081526002602090815260408083206001600160a01b0394909416835292905220805460ff19166001179055565b005b6100d66100d136600461068d565b6101db565b6040516100e8969594939291906106f5565b60405180910390f35b61012d6100ff366004610772565b6001600160a01b03918216600090815260026020908152604080832093909416825291909152205460ff1690565b60405190151581526020016100e8565b61012d61014b36600461068d565b6001600160a01b031660009081526020819052604090205460ff1690565b61012d61017736600461068d565b60006020819052908152604090205460ff1681565b6100c161019a366004610848565b6104c6565b6100c16101ad36600461068d565b3360009081526002602090815260408083206001600160a01b0394909416835292905220805460ff19169055565b6001602052600090815260409020805481906101f690610929565b80601f016020809104026020016040519081016040528092919081815260200182805461022290610929565b801561026f5780601f106102445761010080835404028352916020019161026f565b820191906000526020600020905b81548152906001019060200180831161025257829003601f168201915b50505050509080600101805461028490610929565b80601f01602080910402602001604051908101604052809291908181526020018280546102b090610929565b80156102fd5780601f106102d2576101008083540402835291602001916102fd565b820191906000526020600020905b8154815290600101906020018083116102e057829003601f168201915b50505050509080600201805461031290610929565b80601f016020809104026020016040519081016040528092919081815260200182805461033e90610929565b801561038b5780601f106103605761010080835404028352916020019161038b565b820191906000526020600020905b81548152906001019060200180831161036e57829003601f168201915b5050505050908060030180546103a090610929565b80601f01602080910402602001604051908101604052809291908181526020018280546103cc90610929565b80156104195780601f106103ee57610100808354040283529160200191610419565b820191906000526020600020905b8154815290600101906020018083116103fc57829003601f168201915b505050600484015460058501805494956001600160a01b0390921694919350915061044390610929565b80601f016020809104026020016040519081016040528092919081815260200182805461046f90610929565b80156104bc5780601f10610491576101008083540402835291602001916104bc565b820191906000526020600020905b81548152906001019060200180831161049f57829003601f168201915b5050505050905086565b6001600160a01b03808316600081815260016020526040902060040154909116036105375760405162461bcd60e51b815260206004820152601a60248201527f50617469656e7420616c72656164792072656769737465726564000000000000604482015260640160405180910390fd5b6040805160c0810182528781526020808201889052818301879052606082018690526001600160a01b0385166080830181905260a0830185905260009081526001909152919091208151829190819061059090826109b2565b50602082015160018201906105a590826109b2565b50604082015160028201906105ba90826109b2565b50606082015160038201906105cf90826109b2565b5060808201516004820180546001600160a01b0319166001600160a01b0390921691909117905560a0820151600582019061060a90826109b2565b5050506001600160a01b03831660008181526020819052604090819020805460ff19166001179055517fc85b128388b9c331a2a5485dce4cd0f3db9f7c279d327ce95d6d39d6c94644c790610660908a90610a72565b60405180910390a250505050505050565b80356001600160a01b038116811461068857600080fd5b919050565b60006020828403121561069f57600080fd5b6106a882610671565b9392505050565b6000815180845260005b818110156106d5576020818501810151868301820152016106b9565b506000602082860101526020601f19601f83011685010191505092915050565b60c08152600061070860c08301896106af565b828103602084015261071a81896106af565b9050828103604084015261072e81886106af565b9050828103606084015261074281876106af565b6001600160a01b038616608085015283810360a0850152905061076581856106af565b9998505050505050505050565b6000806040838503121561078557600080fd5b61078e83610671565b915061079c60208401610671565b90509250929050565b634e487b7160e01b600052604160045260246000fd5b600082601f8301126107cc57600080fd5b813567ffffffffffffffff808211156107e7576107e76107a5565b604051601f8301601f19908116603f0116810190828211818310171561080f5761080f6107a5565b8160405283815286602085880101111561082857600080fd5b836020870160208301376000602085830101528094505050505092915050565b60008060008060008060c0878903121561086157600080fd5b863567ffffffffffffffff8082111561087957600080fd5b6108858a838b016107bb565b9750602089013591508082111561089b57600080fd5b6108a78a838b016107bb565b965060408901359150808211156108bd57600080fd5b6108c98a838b016107bb565b955060608901359150808211156108df57600080fd5b6108eb8a838b016107bb565b94506108f960808a01610671565b935060a089013591508082111561090f57600080fd5b5061091c89828a016107bb565b9150509295509295509295565b600181811c9082168061093d57607f821691505b60208210810361095d57634e487b7160e01b600052602260045260246000fd5b50919050565b601f8211156109ad57600081815260208120601f850160051c8101602086101561098a5750805b601f850160051c820191505b818110156109a957828155600101610996565b5050505b505050565b815167ffffffffffffffff8111156109cc576109cc6107a5565b6109e0816109da8454610929565b84610963565b602080601f831160018114610a1557600084156109fd5750858301515b600019600386901b1c1916600185901b1785556109a9565b600085815260208120601f198616915b82811015610a4457888601518255948401946001909101908401610a25565b5085821015610a625787850151600019600388901b60f8161c191681555b5050505050600190811b01905550565b6020815260006106a860208301846106af56fea2646970667358221220da572dfa39ba1136743cf81727e1bee2abf28f6a0fd254bda38d6cd21bcdfd5c64736f6c63430008130033",
  "immutableReferences": {},
  "source": "// SPDX-License-Identifier: MIT\npragma solidity ^0.8.19;\n\ncontract PatientRegistry {\n    struct Patient {\n        string name;\n        string dateOfBirth;\n        string homeAddress;\n        string phoneNumber;\n        address walletAddress;\n        string gender;\n    }\n\n    mapping(address => bool) public isPatient;\n    mapping(address => Patient) public patients;\n    mapping(address => mapping(address => bool)) private canCreate;\n    event PatientRegistered(address indexed patientAddress, string name);\n\n    function registerPatient(\n        string memory _name,\n        string memory _dateOfBirth,\n        string memory _homeAddress,\n        string memory _phoneNumber,\n        address _walletAddress,\n        string memory _gender\n    ) external {\n        require(\n            patients[_walletAddress].walletAddress != _walletAddress,\n            \"Patient already registered\"\n        );\n\n        Patient memory newPatient = Patient({\n            name: _name,\n            dateOfBirth: _dateOfBirth,\n            homeAddress: _homeAddress,\n            phoneNumber: _phoneNumber,\n            walletAddress: _walletAddress,\n            gender: _gender\n        });\n\n        patients[_walletAddress] = newPatient;\n        isPatient[_walletAddress] = true;\n        emit PatientRegistered(_walletAddress, _name);\n    }\n\n    function isRegisteredPatient(\n        address _walletAddress\n    ) external view returns (bool) {\n        return isPatient[_walletAddress];\n    }\n\n    function givepermissioncreate(address _walletAddress) public {\n        canCreate[msg.sender][_walletAddress] = true;\n    }\n\n    function revokepermissioncreate(address _walletAddress) public {\n        canCreate[msg.sender][_walletAddress] = false;\n    }\n\n    function haspermission(\n        address patientaddress,\n        address _walletAddress\n    ) external view returns (bool) {\n        return canCreate[patientaddress][_walletAddress];\n    }\n}\n",
  "sourcePath": "D:\\smart health blockchain system\\src\\contracts\\PatientRegistry.sol",
  "compiler": {
    "name": "solc",
    "version": "0.8.19+commit.7dd6d404.Emscripten.clang"
  },
  "schemaVersion": "3.4.16",
  "updatedAt": "2024-12-16T06:41:55.588Z",
  "devdoc": {
    "kind": "dev",
    "methods": {},
    "version": 1
  },
  "userdoc": {
    "kind": "user",
    "methods": {},
    "version": 1
  }
}