{
  "contractName": "record",
  "abi": [
    {
      "inputs": [
        {
          "internalType": "string",
          "name": "_recordId",
          "type": "string"
        },
        {
          "internalType": "string",
          "name": "_patientName",
          "type": "string"
        },
        {
          "internalType": "string",
          "name": "_doctorName",
          "type": "string"
        },
        {
          "internalType": "address",
          "name": "_doctorAddress",
          "type": "address"
        },
        {
          "internalType": "address",
          "name": "_patientAddress",
          "type": "address"
        },
        {
          "internalType": "uint256",
          "name": "_age",
          "type": "uint256"
        },
        {
          "internalType": "string",
          "name": "_gender",
          "type": "string"
        },
        {
          "internalType": "string",
          "name": "_diagnosis",
          "type": "string"
        },
        {
          "internalType": "string",
          "name": "_prescription",
          "type": "string"
        },
        {
          "internalType": "string",
          "name": "_cid",
          "type": "string"
        },
        {
          "internalType": "string",
          "name": "_docSignature",
          "type": "string"
        }
      ],
      "name": "createEHR",
      "outputs": [],
      "stateMutability": "nonpayable",
      "type": "function"
    },
    {
      "inputs": [],
      "name": "getRecords",
      "outputs": [
        {
          "components": [
            {
              "internalType": "string",
              "name": "recordId",
              "type": "string"
            },
            {
              "internalType": "string",
              "name": "patientName",
              "type": "string"
            },
            {
              "internalType": "string",
              "name": "doctorName",
              "type": "string"
            },
            {
              "internalType": "address",
              "name": "doctorAddress",
              "type": "address"
            },
            {
              "internalType": "address",
              "name": "patientAddress",
              "type": "address"
            },
            {
              "internalType": "uint256",
              "name": "age",
              "type": "uint256"
            },
            {
              "internalType": "string",
              "name": "gender",
              "type": "string"
            },
            {
              "internalType": "string",
              "name": "diagnosis",
              "type": "string"
            },
            {
              "internalType": "string",
              "name": "prescription",
              "type": "string"
            },
            {
              "internalType": "string",
              "name": "cid",
              "type": "string"
            },
            {
              "internalType": "string",
              "name": "docSignature",
              "type": "string"
            }
          ],
          "internalType": "struct record.Record[]",
          "name": "",
          "type": "tuple[]"
        }
      ],
      "stateMutability": "view",
      "type": "function"
    },
    {
      "inputs": [
        {
          "internalType": "address",
          "name": "doctorAddress",
          "type": "address"
        }
      ],
      "name": "grantPermission",
      "outputs": [],
      "stateMutability": "nonpayable",
      "type": "function"
    },
    {
      "inputs": [
        {
          "internalType": "address",
          "name": "doctorAddress",
          "type": "address"
        }
      ],
      "name": "revokePermission",
      "outputs": [],
      "stateMutability": "nonpayable",
      "type": "function"
    },
    {
      "inputs": [
        {
          "internalType": "address",
          "name": "patientAddress",
          "type": "address"
        },
        {
          "internalType": "address",
          "name": "doctorAddress",
          "type": "address"
        }
      ],
      "name": "canViewRecord",
      "outputs": [
        {
          "internalType": "bool",
          "name": "",
          "type": "bool"
        }
      ],
      "stateMutability": "view",
      "type": "function"
    },
    {
      "inputs": [
        {
          "internalType": "address",
          "name": "patientAddress",
          "type": "address"
        }
      ],
      "name": "viewRecord",
      "outputs": [
        {
          "components": [
            {
              "internalType": "string",
              "name": "recordId",
              "type": "string"
            },
            {
              "internalType": "string",
              "name": "patientName",
              "type": "string"
            },
            {
              "internalType": "string",
              "name": "doctorName",
              "type": "string"
            },
            {
              "internalType": "address",
              "name": "doctorAddress",
              "type": "address"
            },
            {
              "internalType": "address",
              "name": "patientAddress",
              "type": "address"
            },
            {
              "internalType": "uint256",
              "name": "age",
              "type": "uint256"
            },
            {
              "internalType": "string",
              "name": "gender",
              "type": "string"
            },
            {
              "internalType": "string",
              "name": "diagnosis",
              "type": "string"
            },
            {
              "internalType": "string",
              "name": "prescription",
              "type": "string"
            },
            {
              "internalType": "string",
              "name": "cid",
              "type": "string"
            },
            {
              "internalType": "string",
              "name": "docSignature",
              "type": "string"
            }
          ],
          "internalType": "struct record.Record[]",
          "name": "",
          "type": "tuple[]"
        }
      ],
      "stateMutability": "view",
      "type": "function"
    }
  ],
  "bytecode": "0x608060405234801561001057600080fd5b50611386806100206000396000f3fe608060405234801561001057600080fd5b50600436106100625760003560e01c80632d8e327814610067578063489950f8146100aa5780636b100169146100fb5780638eff3c291461010e578063a3bf5b9a14610123578063b75bf8651461015f575b600080fd5b6100a8610075366004610ded565b3360009081526001602081815260408084206001600160a01b03959095168452939052919020805460ff19169091179055565b005b6100e66100b8366004610e0f565b6001600160a01b03918216600090815260016020908152604080832093909416825291909152205460ff1690565b60405190151581526020015b60405180910390f35b6100a8610109366004610ee5565b610172565b6101166102f1565b6040516100f291906110a2565b6100a8610131366004610ded565b3360009081526001602090815260408083206001600160a01b0394909416835292905220805460ff19169055565b61011661016d366004610ded565b610818565b60408051610160810182528c815260208082018d90528183018c90526001600160a01b03808c1660608401528a16608083015260a0820189905260c0820188905260e0820187905261010082018690526101208201859052610140820184905233600090815280825292832080546001810182559084529220815191928392600b9091029091019081906102069082611290565b506020820151600182019061021b9082611290565b50604082015160028201906102309082611290565b5060608201516003820180546001600160a01b039283166001600160a01b031991821617909155608084015160048401805491909316911617905560a0820151600582015560c082015160068201906102899082611290565b5060e0820151600782019061029e9082611290565b5061010082015160088201906102b49082611290565b5061012082015160098201906102ca9082611290565b50610140820151600a8201906102e09082611290565b505050505050505050505050505050565b33600090815260208181526040808320805482518185028101850190935280835260609492939192909184015b8282101561080f57838290600052602060002090600b02016040518061016001604052908160008201805461035290611207565b80601f016020809104026020016040519081016040528092919081815260200182805461037e90611207565b80156103cb5780601f106103a0576101008083540402835291602001916103cb565b820191906000526020600020905b8154815290600101906020018083116103ae57829003601f168201915b505050505081526020016001820180546103e490611207565b80601f016020809104026020016040519081016040528092919081815260200182805461041090611207565b801561045d5780601f106104325761010080835404028352916020019161045d565b820191906000526020600020905b81548152906001019060200180831161044057829003601f168201915b5050505050815260200160028201805461047690611207565b80601f01602080910402602001604051908101604052809291908181526020018280546104a290611207565b80156104ef5780601f106104c4576101008083540402835291602001916104ef565b820191906000526020600020905b8154815290600101906020018083116104d257829003601f168201915b505050918352505060038201546001600160a01b03908116602083015260048301541660408201526005820154606082015260068201805460809092019161053690611207565b80601f016020809104026020016040519081016040528092919081815260200182805461056290611207565b80156105af5780601f10610584576101008083540402835291602001916105af565b820191906000526020600020905b81548152906001019060200180831161059257829003601f168201915b505050505081526020016007820180546105c890611207565b80601f01602080910402602001604051908101604052809291908181526020018280546105f490611207565b80156106415780601f1061061657610100808354040283529160200191610641565b820191906000526020600020905b81548152906001019060200180831161062457829003601f168201915b5050505050815260200160088201805461065a90611207565b80601f016020809104026020016040519081016040528092919081815260200182805461068690611207565b80156106d35780601f106106a8576101008083540402835291602001916106d3565b820191906000526020600020905b8154815290600101906020018083116106b657829003601f168201915b505050505081526020016009820180546106ec90611207565b80601f016020809104026020016040519081016040528092919081815260200182805461071890611207565b80156107655780601f1061073a57610100808354040283529160200191610765565b820191906000526020600020905b81548152906001019060200180831161074857829003601f168201915b50505050508152602001600a8201805461077e90611207565b80601f01602080910402602001604051908101604052809291908181526020018280546107aa90611207565b80156107f75780601f106107cc576101008083540402835291602001916107f7565b820191906000526020600020905b8154815290600101906020018083116107da57829003601f168201915b5050505050815250508152602001906001019061031e565b50505050905090565b60606001600160a01b03821633148061085457506001600160a01b038216600090815260016020908152604080832033845290915290205460ff165b6108a45760405162461bcd60e51b815260206004820152601e60248201527f4e6f7420617574686f72697a656420746f2076696577207265636f7264730000604482015260640160405180910390fd5b6001600160a01b03821660009081526020818152604080832080548251818502810185019093528083529193909284015b82821015610dc657838290600052602060002090600b02016040518061016001604052908160008201805461090990611207565b80601f016020809104026020016040519081016040528092919081815260200182805461093590611207565b80156109825780601f1061095757610100808354040283529160200191610982565b820191906000526020600020905b81548152906001019060200180831161096557829003601f168201915b5050505050815260200160018201805461099b90611207565b80601f01602080910402602001604051908101604052809291908181526020018280546109c790611207565b8015610a145780601f106109e957610100808354040283529160200191610a14565b820191906000526020600020905b8154815290600101906020018083116109f757829003601f168201915b50505050508152602001600282018054610a2d90611207565b80601f0160208091040260200160405190810160405280929190818152602001828054610a5990611207565b8015610aa65780601f10610a7b57610100808354040283529160200191610aa6565b820191906000526020600020905b815481529060010190602001808311610a8957829003601f168201915b505050918352505060038201546001600160a01b039081166020830152600483015416604082015260058201546060820152600682018054608090920191610aed90611207565b80601f0160208091040260200160405190810160405280929190818152602001828054610b1990611207565b8015610b665780601f10610b3b57610100808354040283529160200191610b66565b820191906000526020600020905b815481529060010190602001808311610b4957829003601f168201915b50505050508152602001600782018054610b7f90611207565b80601f0160208091040260200160405190810160405280929190818152602001828054610bab90611207565b8015610bf85780601f10610bcd57610100808354040283529160200191610bf8565b820191906000526020600020905b815481529060010190602001808311610bdb57829003601f168201915b50505050508152602001600882018054610c1190611207565b80601f0160208091040260200160405190810160405280929190818152602001828054610c3d90611207565b8015610c8a5780601f10610c5f57610100808354040283529160200191610c8a565b820191906000526020600020905b815481529060010190602001808311610c6d57829003601f168201915b50505050508152602001600982018054610ca390611207565b80601f0160208091040260200160405190810160405280929190818152602001828054610ccf90611207565b8015610d1c5780601f10610cf157610100808354040283529160200191610d1c565b820191906000526020600020905b815481529060010190602001808311610cff57829003601f168201915b50505050508152602001600a82018054610d3590611207565b80601f0160208091040260200160405190810160405280929190818152602001828054610d6190611207565b8015610dae5780601f10610d8357610100808354040283529160200191610dae565b820191906000526020600020905b815481529060010190602001808311610d9157829003601f168201915b505050505081525050815260200190600101906108d5565b505050509050919050565b80356001600160a01b0381168114610de857600080fd5b919050565b600060208284031215610dff57600080fd5b610e0882610dd1565b9392505050565b60008060408385031215610e2257600080fd5b610e2b83610dd1565b9150610e3960208401610dd1565b90509250929050565b634e487b7160e01b600052604160045260246000fd5b600082601f830112610e6957600080fd5b813567ffffffffffffffff80821115610e8457610e84610e42565b604051601f8301601f19908116603f01168101908282118183101715610eac57610eac610e42565b81604052838152866020858801011115610ec557600080fd5b836020870160208301376000602085830101528094505050505092915050565b60008060008060008060008060008060006101608c8e031215610f0757600080fd5b67ffffffffffffffff808d351115610f1e57600080fd5b610f2b8e8e358f01610e58565b9b508060208e01351115610f3e57600080fd5b610f4e8e60208f01358f01610e58565b9a508060408e01351115610f6157600080fd5b610f718e60408f01358f01610e58565b9950610f7f60608e01610dd1565b9850610f8d60808e01610dd1565b975060a08d013596508060c08e01351115610fa757600080fd5b610fb78e60c08f01358f01610e58565b95508060e08e01351115610fca57600080fd5b610fda8e60e08f01358f01610e58565b9450806101008e01351115610fee57600080fd5b610fff8e6101008f01358f01610e58565b9350806101208e0135111561101357600080fd5b6110248e6101208f01358f01610e58565b9250806101408e0135111561103857600080fd5b5061104a8d6101408e01358e01610e58565b90509295989b509295989b9093969950565b6000815180845260005b8181101561108257602081850181015186830182015201611066565b506000602082860101526020601f19601f83011685010191505092915050565b60006020808301818452808551808352604092508286019150828160051b87010184880160005b838110156111f957603f19898403018552815161016081518186526110f08287018261105c565b915050888201518582038a870152611108828261105c565b9150508782015185820389870152611120828261105c565b91505060608083015161113d828801826001600160a01b03169052565b50506080828101516001600160a01b03169086015260a0808301519086015260c08083015186830382880152611173838261105c565b9250505060e0808301518683038288015261118e838261105c565b9250505061010080830151868303828801526111aa838261105c565b9250505061012080830151868303828801526111c6838261105c565b9250505061014080830151925085820381870152506111e5818361105c565b9689019694505050908601906001016110c9565b509098975050505050505050565b600181811c9082168061121b57607f821691505b60208210810361123b57634e487b7160e01b600052602260045260246000fd5b50919050565b601f82111561128b57600081815260208120601f850160051c810160208610156112685750805b601f850160051c820191505b8181101561128757828155600101611274565b5050505b505050565b815167ffffffffffffffff8111156112aa576112aa610e42565b6112be816112b88454611207565b84611241565b602080601f8311600181146112f357600084156112db5750858301515b600019600386901b1c1916600185901b178555611287565b600085815260208120601f198616915b8281101561132257888601518255948401946001909101908401611303565b50858210156113405787850151600019600388901b60f8161c191681555b5050505050600190811b0190555056fea2646970667358221220c89800fa35383dd18f9cd72fffb13ac7fd84066bd4d3c63700774446308f9dca64736f6c63430008130033",
  "immutableReferences": {},
  "source": "// SPDX-License-Identifier: MIT\npragma solidity ^0.8.19;\n\ncontract record {\n    struct Record {\n        string recordId;\n        string patientName;\n        string doctorName;\n        address doctorAddress;\n        address patientAddress;\n        uint256 age;\n        string gender;\n        string diagnosis;\n        string prescription;\n        string cid;\n        string docSignature;\n    }\n    mapping(address => Record[]) private records;\n    mapping(address => mapping(address => bool)) private doctorPermissions;\n\n    function createEHR(\n        string memory _recordId,\n        string memory _patientName,\n        string memory _doctorName,\n        address _doctorAddress,\n        address _patientAddress,\n        uint256 _age,\n        string memory _gender,\n        string memory _diagnosis,\n        string memory _prescription,\n        string memory _cid,\n        string memory _docSignature\n    ) public {\n        Record memory newRecord = Record(\n            _recordId,\n            _patientName,\n            _doctorName,\n            _doctorAddress,\n            _patientAddress,\n            _age,\n            _gender,\n            _diagnosis,\n            _prescription,\n            _cid,\n            _docSignature\n        );\n        records[msg.sender].push(newRecord);\n    }\n\n    function getRecords() public view returns (Record[] memory) {\n        return records[msg.sender];\n    }\n\n    function grantPermission(address doctorAddress) public {\n        doctorPermissions[msg.sender][doctorAddress] = true;\n    }\n\n    function revokePermission(address doctorAddress) public {\n        doctorPermissions[msg.sender][doctorAddress] = false;\n    }\n\n    function canViewRecord(\n        address patientAddress,\n        address doctorAddress\n    ) public view returns (bool) {\n        return doctorPermissions[patientAddress][doctorAddress];\n    }\n\n    function viewRecord(\n        address patientAddress\n    ) public view returns (Record[] memory) {\n        require(\n            patientAddress == msg.sender ||\n                canViewRecord(patientAddress, msg.sender),\n            \"Not authorized to view records\"\n        );\n        return records[patientAddress];\n    }\n}\n",
  "sourcePath": "D:\\smart health blockchain system\\src\\contracts\\record.sol",
  "compiler": {
    "name": "solc",
    "version": "0.8.19+commit.7dd6d404.Emscripten.clang"
  },
  "schemaVersion": "3.4.16",
  "updatedAt": "2024-12-16T06:41:55.592Z",
  "devdoc": {
    "kind": "dev",
    "methods": {},
    "version": 1
  },
  "userdoc": {
    "kind": "user",
    "methods": {},
    "version": 1
  }
}