{
  "contractName": "DoctorAppointment",
  "abi": [
    {
      "inputs": [
        {
          "internalType": "uint256",
          "name": "",
          "type": "uint256"
        }
      ],
      "name": "appointments",
      "outputs": [
        {
          "internalType": "address",
          "name": "doctor",
          "type": "address"
        },
        {
          "internalType": "address",
          "name": "patient",
          "type": "address"
        },
        {
          "internalType": "uint256",
          "name": "time",
          "type": "uint256"
        },
        {
          "internalType": "string",
          "name": "date",
          "type": "string"
        },
        {
          "internalType": "string",
          "name": "name",
          "type": "string"
        }
      ],
      "stateMutability": "view",
      "type": "function",
      "constant": true
    },
    {
      "inputs": [
        {
          "internalType": "address",
          "name": "",
          "type": "address"
        },
        {
          "internalType": "string",
          "name": "",
          "type": "string"
        },
        {
          "internalType": "uint256",
          "name": "",
          "type": "uint256"
        }
      ],
      "name": "doctorSchedule",
      "outputs": [
        {
          "internalType": "uint256",
          "name": "",
          "type": "uint256"
        }
      ],
      "stateMutability": "view",
      "type": "function",
      "constant": true
    },
    {
      "inputs": [
        {
          "internalType": "address",
          "name": "_doctorAddress",
          "type": "address"
        },
        {
          "internalType": "string",
          "name": "_date",
          "type": "string"
        },
        {
          "internalType": "uint256",
          "name": "_time",
          "type": "uint256"
        },
        {
          "internalType": "address",
          "name": "_patientAddress",
          "type": "address"
        },
        {
          "internalType": "string",
          "name": "_name",
          "type": "string"
        }
      ],
      "name": "bookAppointment",
      "outputs": [],
      "stateMutability": "nonpayable",
      "type": "function"
    },
    {
      "inputs": [
        {
          "internalType": "address",
          "name": "_doctorAddress",
          "type": "address"
        }
      ],
      "name": "getAppointmentsForDoctor",
      "outputs": [
        {
          "components": [
            {
              "internalType": "address",
              "name": "doctor",
              "type": "address"
            },
            {
              "internalType": "address",
              "name": "patient",
              "type": "address"
            },
            {
              "internalType": "uint256",
              "name": "time",
              "type": "uint256"
            },
            {
              "internalType": "string",
              "name": "date",
              "type": "string"
            },
            {
              "internalType": "string",
              "name": "name",
              "type": "string"
            }
          ],
          "internalType": "struct DoctorAppointment.Appointment[]",
          "name": "",
          "type": "tuple[]"
        }
      ],
      "stateMutability": "view",
      "type": "function",
      "constant": true
    },
    {
      "inputs": [
        {
          "internalType": "address",
          "name": "_doctorAddress",
          "type": "address"
        },
        {
          "internalType": "string",
          "name": "_date",
          "type": "string"
        }
      ],
      "name": "getBookedSlotsForDoctor",
      "outputs": [
        {
          "internalType": "uint256[]",
          "name": "",
          "type": "uint256[]"
        }
      ],
      "stateMutability": "view",
      "type": "function",
      "constant": true
    },
    {
      "inputs": [
        {
          "internalType": "address",
          "name": "_doctorAddress",
          "type": "address"
        },
        {
          "internalType": "string",
          "name": "_date",
          "type": "string"
        },
        {
          "internalType": "uint256",
          "name": "_time",
          "type": "uint256"
        }
      ],
      "name": "removeAppointment",
      "outputs": [],
      "stateMutability": "nonpayable",
      "type": "function"
    }
  ],
  "bytecode": "0x6080604052348015600e575f5ffd5b50611d298061001c5f395ff3fe608060405234801561000f575f5ffd5b5060043610610060575f3560e01c806312dc9013146100645780631c688f5d14610098578063beb54453146100c8578063d81f638c146100e4578063df16a3a414610100578063f961501314610130575b5f5ffd5b61007e60048036038101906100799190610f76565b610160565b60405161008f95949392919061105f565b60405180910390f35b6100b260048036038101906100ad9190611214565b6102eb565b6040516100bf9190611325565b60405180910390f35b6100e260048036038101906100dd9190611345565b61039a565b005b6100fe60048036038101906100f991906113b1565b610821565b005b61011a60048036038101906101159190611345565b610a67565b6040516101279190611460565b60405180910390f35b61014a60048036038101906101459190611479565b610ab4565b6040516101579190611630565b60405180910390f35b6001818154811061016f575f80fd5b905f5260205f2090600502015f91509050805f015f9054906101000a900473ffffffffffffffffffffffffffffffffffffffff1690806001015f9054906101000a900473ffffffffffffffffffffffffffffffffffffffff16908060020154908060030180546101de9061167d565b80601f016020809104026020016040519081016040528092919081815260200182805461020a9061167d565b80156102555780601f1061022c57610100808354040283529160200191610255565b820191905f5260205f20905b81548152906001019060200180831161023857829003601f168201915b50505050509080600401805461026a9061167d565b80601f01602080910402602001604051908101604052809291908181526020018280546102969061167d565b80156102e15780601f106102b8576101008083540402835291602001916102e1565b820191905f5260205f20905b8154815290600101906020018083116102c457829003601f168201915b5050505050905085565b60605f5f8473ffffffffffffffffffffffffffffffffffffffff1673ffffffffffffffffffffffffffffffffffffffff1681526020019081526020015f208260405161033791906116e7565b908152602001604051809103902080548060200260200160405190810160405280929190818152602001828054801561038d57602002820191905f5260205f20905b815481526020019060010190808311610379575b5050505050905092915050565b5f5f5f8573ffffffffffffffffffffffffffffffffffffffff1673ffffffffffffffffffffffffffffffffffffffff1681526020019081526020015f20836040516103e591906116e7565b908152602001604051809103902090505f5f90505f5f90505b82805490508110156104b1578383828154811061041e5761041d6116fd565b5b905f5260205f200154036104a457826001848054905061043e9190611757565b8154811061044f5761044e6116fd565b5b905f5260205f20015483828154811061046b5761046a6116fd565b5b905f5260205f200181905550828054806104885761048761178a565b5b600190038181905f5260205f20015f90559055600191506104b1565b80806001019150506103fe565b50806104f2576040517f08c379a00000000000000000000000000000000000000000000000000000000081526004016104e990611827565b60405180910390fd5b5f5f90505b600180549050811015610819578573ffffffffffffffffffffffffffffffffffffffff166001828154811061052f5761052e6116fd565b5b905f5260205f2090600502015f015f9054906101000a900473ffffffffffffffffffffffffffffffffffffffff1673ffffffffffffffffffffffffffffffffffffffff161480156105ed57508460405160200161058c91906116e7565b60405160208183030381529060405280519060200120600182815481106105b6576105b56116fd565b5b905f5260205f2090600502016003016040516020016105d591906118d7565b60405160208183030381529060405280519060200120145b801561061b57508360018281548110610609576106086116fd565b5b905f5260205f20906005020160020154145b1561080c5760018080805490506106329190611757565b81548110610643576106426116fd565b5b905f5260205f20906005020160018281548110610663576106626116fd565b5b905f5260205f2090600502015f82015f9054906101000a900473ffffffffffffffffffffffffffffffffffffffff16815f015f6101000a81548173ffffffffffffffffffffffffffffffffffffffff021916908373ffffffffffffffffffffffffffffffffffffffff160217905550600182015f9054906101000a900473ffffffffffffffffffffffffffffffffffffffff16816001015f6101000a81548173ffffffffffffffffffffffffffffffffffffffff021916908373ffffffffffffffffffffffffffffffffffffffff16021790555060028201548160020155600382018160030190816107559190611a90565b506004820181600401908161076a9190611a90565b5090505060018054806107805761077f61178a565b5b600190038181905f5260205f2090600502015f5f82015f6101000a81549073ffffffffffffffffffffffffffffffffffffffff0219169055600182015f6101000a81549073ffffffffffffffffffffffffffffffffffffffff0219169055600282015f9055600382015f6107f49190610e82565b600482015f6108039190610e82565b50509055610819565b80806001019150506104f7565b505050505050565b5f5f5f8773ffffffffffffffffffffffffffffffffffffffff1673ffffffffffffffffffffffffffffffffffffffff1681526020019081526020015f208560405161086c91906116e7565b908152602001604051809103902090505f5f90505b81805490508110156108f757848282815481106108a1576108a06116fd565b5b905f5260205f200154036108ea576040517f08c379a00000000000000000000000000000000000000000000000000000000081526004016108e190611bbf565b60405180910390fd5b8080600101915050610881565b508084908060018154018082558091505060019003905f5260205f20015f90919091909150555f6040518060a001604052808873ffffffffffffffffffffffffffffffffffffffff1681526020018573ffffffffffffffffffffffffffffffffffffffff168152602001868152602001878152602001848152509050600181908060018154018082558091505060019003905f5260205f2090600502015f909190919091505f820151815f015f6101000a81548173ffffffffffffffffffffffffffffffffffffffff021916908373ffffffffffffffffffffffffffffffffffffffff1602179055506020820151816001015f6101000a81548173ffffffffffffffffffffffffffffffffffffffff021916908373ffffffffffffffffffffffffffffffffffffffff160217905550604082015181600201556060820151816003019081610a459190611bdd565b506080820151816004019081610a5b9190611bdd565b50505050505050505050565b5f602052825f5260405f20828051602081018201805184825260208301602085012081835280955050505050508181548110610aa1575f80fd5b905f5260205f20015f9250925050505481565b60605f5f90505f5f90505b600180549050811015610b5c578373ffffffffffffffffffffffffffffffffffffffff1660018281548110610af757610af66116fd565b5b905f5260205f2090600502015f015f9054906101000a900473ffffffffffffffffffffffffffffffffffffffff1673ffffffffffffffffffffffffffffffffffffffff1603610b4f578180610b4b90611cac565b9250505b8080600101915050610abf565b505f8167ffffffffffffffff811115610b7857610b776110f0565b5b604051908082528060200260200182016040528015610bb157816020015b610b9e610ebf565b815260200190600190039081610b965790505b5090505f5f90505f5f90505b600180549050811015610e76578573ffffffffffffffffffffffffffffffffffffffff1660018281548110610bf557610bf46116fd565b5b905f5260205f2090600502015f015f9054906101000a900473ffffffffffffffffffffffffffffffffffffffff1673ffffffffffffffffffffffffffffffffffffffff1603610e695760018181548110610c5257610c516116fd565b5b905f5260205f2090600502016040518060a00160405290815f82015f9054906101000a900473ffffffffffffffffffffffffffffffffffffffff1673ffffffffffffffffffffffffffffffffffffffff1673ffffffffffffffffffffffffffffffffffffffff168152602001600182015f9054906101000a900473ffffffffffffffffffffffffffffffffffffffff1673ffffffffffffffffffffffffffffffffffffffff1673ffffffffffffffffffffffffffffffffffffffff16815260200160028201548152602001600382018054610d2c9061167d565b80601f0160208091040260200160405190810160405280929190818152602001828054610d589061167d565b8015610da35780601f10610d7a57610100808354040283529160200191610da3565b820191905f5260205f20905b815481529060010190602001808311610d8657829003601f168201915b50505050508152602001600482018054610dbc9061167d565b80601f0160208091040260200160405190810160405280929190818152602001828054610de89061167d565b8015610e335780601f10610e0a57610100808354040283529160200191610e33565b820191905f5260205f20905b815481529060010190602001808311610e1657829003601f168201915b505050505081525050838381518110610e4f57610e4e6116fd565b5b60200260200101819052508180610e6590611cac565b9250505b8080600101915050610bbd565b50819350505050919050565b508054610e8e9061167d565b5f825580601f10610e9f5750610ebc565b601f0160209004905f5260205f2090810190610ebb9190610f17565b5b50565b6040518060a001604052805f73ffffffffffffffffffffffffffffffffffffffff1681526020015f73ffffffffffffffffffffffffffffffffffffffff1681526020015f815260200160608152602001606081525090565b5b80821115610f2e575f815f905550600101610f18565b5090565b5f604051905090565b5f5ffd5b5f5ffd5b5f819050919050565b610f5581610f43565b8114610f5f575f5ffd5b50565b5f81359050610f7081610f4c565b92915050565b5f60208284031215610f8b57610f8a610f3b565b5b5f610f9884828501610f62565b91505092915050565b5f73ffffffffffffffffffffffffffffffffffffffff82169050919050565b5f610fca82610fa1565b9050919050565b610fda81610fc0565b82525050565b610fe981610f43565b82525050565b5f81519050919050565b5f82825260208201905092915050565b8281835e5f83830152505050565b5f601f19601f8301169050919050565b5f61103182610fef565b61103b8185610ff9565b935061104b818560208601611009565b61105481611017565b840191505092915050565b5f60a0820190506110725f830188610fd1565b61107f6020830187610fd1565b61108c6040830186610fe0565b818103606083015261109e8185611027565b905081810360808301526110b28184611027565b90509695505050505050565b6110c781610fc0565b81146110d1575f5ffd5b50565b5f813590506110e2816110be565b92915050565b5f5ffd5b5f5ffd5b7f4e487b71000000000000000000000000000000000000000000000000000000005f52604160045260245ffd5b61112682611017565b810181811067ffffffffffffffff82111715611145576111446110f0565b5b80604052505050565b5f611157610f32565b9050611163828261111d565b919050565b5f67ffffffffffffffff821115611182576111816110f0565b5b61118b82611017565b9050602081019050919050565b828183375f83830152505050565b5f6111b86111b384611168565b61114e565b9050828152602081018484840111156111d4576111d36110ec565b5b6111df848285611198565b509392505050565b5f82601f8301126111fb576111fa6110e8565b5b813561120b8482602086016111a6565b91505092915050565b5f5f6040838503121561122a57611229610f3b565b5b5f611237858286016110d4565b925050602083013567ffffffffffffffff81111561125857611257610f3f565b5b611264858286016111e7565b9150509250929050565b5f81519050919050565b5f82825260208201905092915050565b5f819050602082019050919050565b6112a081610f43565b82525050565b5f6112b18383611297565b60208301905092915050565b5f602082019050919050565b5f6112d38261126e565b6112dd8185611278565b93506112e883611288565b805f5b838110156113185781516112ff88826112a6565b975061130a836112bd565b9250506001810190506112eb565b5085935050505092915050565b5f6020820190508181035f83015261133d81846112c9565b905092915050565b5f5f5f6060848603121561135c5761135b610f3b565b5b5f611369868287016110d4565b935050602084013567ffffffffffffffff81111561138a57611389610f3f565b5b611396868287016111e7565b92505060406113a786828701610f62565b9150509250925092565b5f5f5f5f5f60a086880312156113ca576113c9610f3b565b5b5f6113d7888289016110d4565b955050602086013567ffffffffffffffff8111156113f8576113f7610f3f565b5b611404888289016111e7565b945050604061141588828901610f62565b9350506060611426888289016110d4565b925050608086013567ffffffffffffffff81111561144757611446610f3f565b5b611453888289016111e7565b9150509295509295909350565b5f6020820190506114735f830184610fe0565b92915050565b5f6020828403121561148e5761148d610f3b565b5b5f61149b848285016110d4565b91505092915050565b5f81519050919050565b5f82825260208201905092915050565b5f819050602082019050919050565b6114d681610fc0565b82525050565b5f82825260208201905092915050565b5f6114f682610fef565b61150081856114dc565b9350611510818560208601611009565b61151981611017565b840191505092915050565b5f60a083015f8301516115395f8601826114cd565b50602083015161154c60208601826114cd565b50604083015161155f6040860182611297565b506060830151848203606086015261157782826114ec565b9150506080830151848203608086015261159182826114ec565b9150508091505092915050565b5f6115a98383611524565b905092915050565b5f602082019050919050565b5f6115c7826114a4565b6115d181856114ae565b9350836020820285016115e3856114be565b805f5b8581101561161e57848403895281516115ff858261159e565b945061160a836115b1565b925060208a019950506001810190506115e6565b50829750879550505050505092915050565b5f6020820190508181035f83015261164881846115bd565b905092915050565b7f4e487b71000000000000000000000000000000000000000000000000000000005f52602260045260245ffd5b5f600282049050600182168061169457607f821691505b6020821081036116a7576116a6611650565b5b50919050565b5f81905092915050565b5f6116c182610fef565b6116cb81856116ad565b93506116db818560208601611009565b80840191505092915050565b5f6116f282846116b7565b915081905092915050565b7f4e487b71000000000000000000000000000000000000000000000000000000005f52603260045260245ffd5b7f4e487b71000000000000000000000000000000000000000000000000000000005f52601160045260245ffd5b5f61176182610f43565b915061176c83610f43565b92508282039050818111156117845761178361172a565b5b92915050565b7f4e487b71000000000000000000000000000000000000000000000000000000005f52603160045260245ffd5b7f4e6f206170706f696e746d656e7420666f756e6420666f7220746865206769765f8201527f656e206461746520616e642074696d652e000000000000000000000000000000602082015250565b5f611811603183610ff9565b915061181c826117b7565b604082019050919050565b5f6020820190508181035f83015261183e81611805565b9050919050565b5f819050815f5260205f209050919050565b5f81546118638161167d565b61186d81866116ad565b9450600182165f8114611887576001811461189c576118ce565b60ff19831686528115158202860193506118ce565b6118a585611845565b5f5b838110156118c6578154818901526001820191506020810190506118a7565b838801955050505b50505092915050565b5f6118e28284611857565b915081905092915050565b5f815490506118fb8161167d565b9050919050565b5f6020601f8301049050919050565b5f82821b905092915050565b5f6008830261194c7fffffffffffffffffffffffffffffffffffffffffffffffffffffffffffffffff82611911565b6119568683611911565b95508019841693508086168417925050509392505050565b5f819050919050565b5f61199161198c61198784610f43565b61196e565b610f43565b9050919050565b5f819050919050565b6119aa83611977565b6119be6119b682611998565b84845461191d565b825550505050565b5f5f905090565b6119d56119c6565b6119e08184846119a1565b505050565b5b81811015611a03576119f85f826119cd565b6001810190506119e6565b5050565b601f821115611a4857611a1981611845565b611a2284611902565b81016020851015611a31578190505b611a45611a3d85611902565b8301826119e5565b50505b505050565b5f82821c905092915050565b5f611a685f1984600802611a4d565b1980831691505092915050565b5f611a808383611a59565b9150826002028217905092915050565b818103611a9e575050611b73565b611aa7826118ed565b67ffffffffffffffff811115611ac057611abf6110f0565b5b611aca825461167d565b611ad5828285611a07565b5f601f831160018114611b02575f8415611af0578287015490505b611afa8582611a75565b865550611b6c565b601f198416611b1087611845565b9650611b1b86611845565b5f5b82811015611b4257848901548255600182019150600185019450602081019050611b1d565b86831015611b5f5784890154611b5b601f891682611a59565b8355505b6001600288020188555050505b5050505050505b565b7f5468697320736c6f7420697320616c726561647920626f6f6b656421000000005f82015250565b5f611ba9601c83610ff9565b9150611bb482611b75565b602082019050919050565b5f6020820190508181035f830152611bd681611b9d565b9050919050565b611be682610fef565b67ffffffffffffffff811115611bff57611bfe6110f0565b5b611c09825461167d565b611c14828285611a07565b5f60209050601f831160018114611c45575f8415611c33578287015190505b611c3d8582611a75565b865550611ca4565b601f198416611c5386611845565b5f5b82811015611c7a57848901518255600182019150602085019450602081019050611c55565b86831015611c975784890151611c93601f891682611a59565b8355505b6001600288020188555050505b505050505050565b5f611cb682610f43565b91507fffffffffffffffffffffffffffffffffffffffffffffffffffffffffffffffff8203611ce857611ce761172a565b5b60018201905091905056fea26469706673582212201f86cb5282c80d8d939042bd0f96f26d4d752c37f1c1364dce843ba3c68f110d64736f6c634300081c0033",
  "immutableReferences": {},
  "source": "// SPDX-License-Identifier: MIT\npragma solidity ^0.8.19;\n\ncontract DoctorAppointment {\n    struct Appointment {\n        address doctor;\n        address patient;\n        uint256 time;\n        string date;\n        string name;\n    }\n\n    // A mapping from doctor's address and date to the array of booked times.\n    mapping(address => mapping(string => uint256[])) public doctorSchedule;\n\n    // A list of all appointments.\n    Appointment[] public appointments;\n\n    function bookAppointment(\n        address _doctorAddress,\n        string memory _date,\n        uint256 _time,\n        address _patientAddress,\n        string memory _name\n    ) public {\n        uint256[] storage times = doctorSchedule[_doctorAddress][_date];\n        for (uint i = 0; i < times.length; i++) {\n            require(times[i] != _time, \"This slot is already booked!\");\n        }\n\n        times.push(_time);\n\n        Appointment memory newAppointment = Appointment({\n            doctor: _doctorAddress,\n            patient: _patientAddress,\n            time: _time,\n            date: _date,\n            name: _name\n        });\n\n        appointments.push(newAppointment);\n    }\n\n    function getAppointmentsForDoctor(\n        address _doctorAddress\n    ) public view returns (Appointment[] memory) {\n        uint count = 0;\n        for (uint i = 0; i < appointments.length; i++) {\n            if (appointments[i].doctor == _doctorAddress) {\n                count++;\n            }\n        }\n\n        Appointment[] memory doctorAppointments = new Appointment[](count);\n        uint j = 0;\n        for (uint i = 0; i < appointments.length; i++) {\n            if (appointments[i].doctor == _doctorAddress) {\n                doctorAppointments[j] = appointments[i];\n                j++;\n            }\n        }\n        return doctorAppointments;\n    }\n\n    // Additional function to fetch booked slots for a doctor on a specific date\n    function getBookedSlotsForDoctor(\n        address _doctorAddress,\n        string memory _date\n    ) public view returns (uint256[] memory) {\n        return doctorSchedule[_doctorAddress][_date];\n    }\n\n    function removeAppointment(\n        address _doctorAddress,\n        string memory _date,\n        uint256 _time\n    ) public {\n        uint256[] storage times = doctorSchedule[_doctorAddress][_date];\n        bool timeFound = false;\n        for (uint i = 0; i < times.length; i++) {\n            if (times[i] == _time) {\n                times[i] = times[times.length - 1];\n                times.pop();\n                timeFound = true;\n                break;\n            }\n        }\n\n        require(timeFound, \"No appointment found for the given date and time.\");\n\n        // Removing the appointment from the appointments array\n        for (uint i = 0; i < appointments.length; i++) {\n            if (\n                appointments[i].doctor == _doctorAddress &&\n                keccak256(abi.encodePacked(appointments[i].date)) ==\n                keccak256(abi.encodePacked(_date)) &&\n                appointments[i].time == _time\n            ) {\n                appointments[i] = appointments[appointments.length - 1];\n                appointments.pop();\n                break;\n            }\n        }\n    }\n}\n",
  "sourcePath": "F:\\smart health blockchain system\\src\\contracts\\DoctorAppointment.sol",
  "compiler": {
    "name": "solc",
    "version": "0.8.28+commit.7893614a.Emscripten.clang"
  },
  "schemaVersion": "3.4.16",
  "updatedAt": "2024-12-16T10:44:13.170Z",
  "networkType": "ethereum",
  "devdoc": {
    "kind": "dev",
    "methods": {},
    "version": 1
  },
  "userdoc": {
    "kind": "user",
    "methods": {},
    "version": 1
  }
}