{
  "contractName": "DoctorRegistration",
  "abi": [
    {
      "anonymous": false,
      "inputs": [
        {
          "indexed": true,
          "internalType": "address",
          "name": "doctorAddress",
          "type": "address"
        },
        {
          "indexed": false,
          "internalType": "string",
          "name": "doctorName",
          "type": "string"
        }
      ],
      "name": "DoctorRegistered",
      "type": "event"
    },
    {
      "inputs": [
        {
          "internalType": "address",
          "name": "_doctorAddress",
          "type": "address"
        },
        {
          "internalType": "string",
          "name": "_doctorName",
          "type": "string"
        },
        {
          "internalType": "string",
          "name": "_hospitalName",
          "type": "string"
        },
        {
          "internalType": "string",
          "name": "_dateOfBirth",
          "type": "string"
        },
        {
          "internalType": "string",
          "name": "_gender",
          "type": "string"
        },
        {
          "internalType": "string",
          "name": "_phoneNumber",
          "type": "string"
        },
        {
          "internalType": "string",
          "name": "_specialization",
          "type": "string"
        },
        {
          "internalType": "string",
          "name": "_department",
          "type": "string"
        },
        {
          "internalType": "string",
          "name": "_designation",
          "type": "string"
        },
        {
          "internalType": "string",
          "name": "_bmdcNumber",
          "type": "string"
        }
      ],
      "name": "registerDoctor",
      "outputs": [],
      "stateMutability": "nonpayable",
      "type": "function"
    },
    {
      "inputs": [
        {
          "internalType": "address",
          "name": "_doctorAddress",
          "type": "address"
        }
      ],
      "name": "getDoctorDetails",
      "outputs": [
        {
          "components": [
            {
              "internalType": "address",
              "name": "doctorAddress",
              "type": "address"
            },
            {
              "internalType": "string",
              "name": "doctorName",
              "type": "string"
            },
            {
              "internalType": "string",
              "name": "hospitalName",
              "type": "string"
            },
            {
              "internalType": "string",
              "name": "dateOfBirth",
              "type": "string"
            },
            {
              "internalType": "string",
              "name": "gender",
              "type": "string"
            },
            {
              "internalType": "string",
              "name": "phoneNumber",
              "type": "string"
            },
            {
              "internalType": "string",
              "name": "specialization",
              "type": "string"
            },
            {
              "internalType": "string",
              "name": "department",
              "type": "string"
            },
            {
              "internalType": "string",
              "name": "designation",
              "type": "string"
            },
            {
              "internalType": "string",
              "name": "bmdcNumber",
              "type": "string"
            }
          ],
          "internalType": "struct DoctorRegistration.Doctor",
          "name": "",
          "type": "tuple"
        }
      ],
      "stateMutability": "view",
      "type": "function",
      "constant": true
    },
    {
      "inputs": [
        {
          "internalType": "address",
          "name": "_doctorAddress",
          "type": "address"
        }
      ],
      "name": "isRegisteredDoctor",
      "outputs": [
        {
          "internalType": "bool",
          "name": "",
          "type": "bool"
        }
      ],
      "stateMutability": "view",
      "type": "function",
      "constant": true
    }
  ],
  "bytecode": "0x6080604052348015600e575f5ffd5b5061136b8061001c5f395ff3fe608060405234801561000f575f5ffd5b506004361061003f575f3560e01c806397bff33814610043578063bab90dbd14610073578063d4953627146100a3575b5f5ffd5b61005d60048036038101906100589190610a83565b6100bf565b60405161006a9190610ac8565b60405180910390f35b61008d60048036038101906100889190610a83565b610111565b60405161009a9190610c6f565b60405180910390f35b6100bd60048036038101906100b89190610dbb565b6106cc565b005b5f60015f8373ffffffffffffffffffffffffffffffffffffffff1673ffffffffffffffffffffffffffffffffffffffff1681526020019081526020015f205f9054906101000a900460ff169050919050565b6101196109b0565b5f5f8373ffffffffffffffffffffffffffffffffffffffff1673ffffffffffffffffffffffffffffffffffffffff1681526020019081526020015f20604051806101400160405290815f82015f9054906101000a900473ffffffffffffffffffffffffffffffffffffffff1673ffffffffffffffffffffffffffffffffffffffff1673ffffffffffffffffffffffffffffffffffffffff1681526020016001820180546101c590610fbd565b80601f01602080910402602001604051908101604052809291908181526020018280546101f190610fbd565b801561023c5780601f106102135761010080835404028352916020019161023c565b820191905f5260205f20905b81548152906001019060200180831161021f57829003601f168201915b5050505050815260200160028201805461025590610fbd565b80601f016020809104026020016040519081016040528092919081815260200182805461028190610fbd565b80156102cc5780601f106102a3576101008083540402835291602001916102cc565b820191905f5260205f20905b8154815290600101906020018083116102af57829003601f168201915b505050505081526020016003820180546102e590610fbd565b80601f016020809104026020016040519081016040528092919081815260200182805461031190610fbd565b801561035c5780601f106103335761010080835404028352916020019161035c565b820191905f5260205f20905b81548152906001019060200180831161033f57829003601f168201915b5050505050815260200160048201805461037590610fbd565b80601f01602080910402602001604051908101604052809291908181526020018280546103a190610fbd565b80156103ec5780601f106103c3576101008083540402835291602001916103ec565b820191905f5260205f20905b8154815290600101906020018083116103cf57829003601f168201915b5050505050815260200160058201805461040590610fbd565b80601f016020809104026020016040519081016040528092919081815260200182805461043190610fbd565b801561047c5780601f106104535761010080835404028352916020019161047c565b820191905f5260205f20905b81548152906001019060200180831161045f57829003601f168201915b5050505050815260200160068201805461049590610fbd565b80601f01602080910402602001604051908101604052809291908181526020018280546104c190610fbd565b801561050c5780601f106104e35761010080835404028352916020019161050c565b820191905f5260205f20905b8154815290600101906020018083116104ef57829003601f168201915b5050505050815260200160078201805461052590610fbd565b80601f016020809104026020016040519081016040528092919081815260200182805461055190610fbd565b801561059c5780601f106105735761010080835404028352916020019161059c565b820191905f5260205f20905b81548152906001019060200180831161057f57829003601f168201915b505050505081526020016008820180546105b590610fbd565b80601f01602080910402602001604051908101604052809291908181526020018280546105e190610fbd565b801561062c5780601f106106035761010080835404028352916020019161062c565b820191905f5260205f20905b81548152906001019060200180831161060f57829003601f168201915b5050505050815260200160098201805461064590610fbd565b80601f016020809104026020016040519081016040528092919081815260200182805461067190610fbd565b80156106bc5780601f10610693576101008083540402835291602001916106bc565b820191905f5260205f20905b81548152906001019060200180831161069f57829003601f168201915b5050505050815250509050919050565b60015f8b73ffffffffffffffffffffffffffffffffffffffff1673ffffffffffffffffffffffffffffffffffffffff1681526020019081526020015f205f9054906101000a900460ff1615610756576040517f08c379a000000000000000000000000000000000000000000000000000000000815260040161074d90611047565b60405180910390fd5b5f6040518061014001604052808c73ffffffffffffffffffffffffffffffffffffffff1681526020018b81526020018a8152602001898152602001888152602001878152602001868152602001858152602001848152602001838152509050805f5f8d73ffffffffffffffffffffffffffffffffffffffff1673ffffffffffffffffffffffffffffffffffffffff1681526020019081526020015f205f820151815f015f6101000a81548173ffffffffffffffffffffffffffffffffffffffff021916908373ffffffffffffffffffffffffffffffffffffffff160217905550602082015181600101908161084b919061120e565b506040820151816002019081610861919061120e565b506060820151816003019081610877919061120e565b50608082015181600401908161088d919061120e565b5060a08201518160050190816108a3919061120e565b5060c08201518160060190816108b9919061120e565b5060e08201518160070190816108cf919061120e565b506101008201518160080190816108e6919061120e565b506101208201518160090190816108fd919061120e565b509050506001805f8d73ffffffffffffffffffffffffffffffffffffffff1673ffffffffffffffffffffffffffffffffffffffff1681526020019081526020015f205f6101000a81548160ff0219169083151502179055508a73ffffffffffffffffffffffffffffffffffffffff167f20481b8112b5bf4734f45a473c373db9df6a79ce946cdc0e7dbc22b4f7d7f9868b60405161099b9190611315565b60405180910390a25050505050505050505050565b6040518061014001604052805f73ffffffffffffffffffffffffffffffffffffffff1681526020016060815260200160608152602001606081526020016060815260200160608152602001606081526020016060815260200160608152602001606081525090565b5f604051905090565b5f5ffd5b5f5ffd5b5f73ffffffffffffffffffffffffffffffffffffffff82169050919050565b5f610a5282610a29565b9050919050565b610a6281610a48565b8114610a6c575f5ffd5b50565b5f81359050610a7d81610a59565b92915050565b5f60208284031215610a9857610a97610a21565b5b5f610aa584828501610a6f565b91505092915050565b5f8115159050919050565b610ac281610aae565b82525050565b5f602082019050610adb5f830184610ab9565b92915050565b610aea81610a48565b82525050565b5f81519050919050565b5f82825260208201905092915050565b8281835e5f83830152505050565b5f601f19601f8301169050919050565b5f610b3282610af0565b610b3c8185610afa565b9350610b4c818560208601610b0a565b610b5581610b18565b840191505092915050565b5f61014083015f830151610b765f860182610ae1565b5060208301518482036020860152610b8e8282610b28565b91505060408301518482036040860152610ba88282610b28565b91505060608301518482036060860152610bc28282610b28565b91505060808301518482036080860152610bdc8282610b28565b91505060a083015184820360a0860152610bf68282610b28565b91505060c083015184820360c0860152610c108282610b28565b91505060e083015184820360e0860152610c2a8282610b28565b915050610100830151848203610100860152610c468282610b28565b915050610120830151848203610120860152610c628282610b28565b9150508091505092915050565b5f6020820190508181035f830152610c878184610b60565b905092915050565b5f5ffd5b5f5ffd5b7f4e487b71000000000000000000000000000000000000000000000000000000005f52604160045260245ffd5b610ccd82610b18565b810181811067ffffffffffffffff82111715610cec57610ceb610c97565b5b80604052505050565b5f610cfe610a18565b9050610d0a8282610cc4565b919050565b5f67ffffffffffffffff821115610d2957610d28610c97565b5b610d3282610b18565b9050602081019050919050565b828183375f83830152505050565b5f610d5f610d5a84610d0f565b610cf5565b905082815260208101848484011115610d7b57610d7a610c93565b5b610d86848285610d3f565b509392505050565b5f82601f830112610da257610da1610c8f565b5b8135610db2848260208601610d4d565b91505092915050565b5f5f5f5f5f5f5f5f5f5f6101408b8d031215610dda57610dd9610a21565b5b5f610de78d828e01610a6f565b9a505060208b013567ffffffffffffffff811115610e0857610e07610a25565b5b610e148d828e01610d8e565b99505060408b013567ffffffffffffffff811115610e3557610e34610a25565b5b610e418d828e01610d8e565b98505060608b013567ffffffffffffffff811115610e6257610e61610a25565b5b610e6e8d828e01610d8e565b97505060808b013567ffffffffffffffff811115610e8f57610e8e610a25565b5b610e9b8d828e01610d8e565b96505060a08b013567ffffffffffffffff811115610ebc57610ebb610a25565b5b610ec88d828e01610d8e565b95505060c08b013567ffffffffffffffff811115610ee957610ee8610a25565b5b610ef58d828e01610d8e565b94505060e08b013567ffffffffffffffff811115610f1657610f15610a25565b5b610f228d828e01610d8e565b9350506101008b013567ffffffffffffffff811115610f4457610f43610a25565b5b610f508d828e01610d8e565b9250506101208b013567ffffffffffffffff811115610f7257610f71610a25565b5b610f7e8d828e01610d8e565b9150509295989b9194979a5092959850565b7f4e487b71000000000000000000000000000000000000000000000000000000005f52602260045260245ffd5b5f6002820490506001821680610fd457607f821691505b602082108103610fe757610fe6610f90565b5b50919050565b5f82825260208201905092915050565b7f446f63746f7220616c72656164792072656769737465726564000000000000005f82015250565b5f611031601983610fed565b915061103c82610ffd565b602082019050919050565b5f6020820190508181035f83015261105e81611025565b9050919050565b5f819050815f5260205f209050919050565b5f6020601f8301049050919050565b5f82821b905092915050565b5f600883026110c17fffffffffffffffffffffffffffffffffffffffffffffffffffffffffffffffff82611086565b6110cb8683611086565b95508019841693508086168417925050509392505050565b5f819050919050565b5f819050919050565b5f61110f61110a611105846110e3565b6110ec565b6110e3565b9050919050565b5f819050919050565b611128836110f5565b61113c61113482611116565b848454611092565b825550505050565b5f5f905090565b611153611144565b61115e81848461111f565b505050565b5b81811015611181576111765f8261114b565b600181019050611164565b5050565b601f8211156111c65761119781611065565b6111a084611077565b810160208510156111af578190505b6111c36111bb85611077565b830182611163565b50505b505050565b5f82821c905092915050565b5f6111e65f19846008026111cb565b1980831691505092915050565b5f6111fe83836111d7565b9150826002028217905092915050565b61121782610af0565b67ffffffffffffffff8111156112305761122f610c97565b5b61123a8254610fbd565b611245828285611185565b5f60209050601f831160018114611276575f8415611264578287015190505b61126e85826111f3565b8655506112d5565b601f19841661128486611065565b5f5b828110156112ab57848901518255600182019150602085019450602081019050611286565b868310156112c857848901516112c4601f8916826111d7565b8355505b6001600288020188555050505b505050505050565b5f6112e782610af0565b6112f18185610fed565b9350611301818560208601610b0a565b61130a81610b18565b840191505092915050565b5f6020820190508181035f83015261132d81846112dd565b90509291505056fea26469706673582212202a1457433d503680cd6a864f7f15f4c968c3797d1ec76e949199f08b3c57ae6a64736f6c634300081c0033",
  "immutableReferences": {},
  "source": "// SPDX-License-Identifier: MIT\npragma solidity ^0.8.19;\n\ncontract DoctorRegistration {\n    struct Doctor {\n        address doctorAddress; // Add the Ethereum address to the struct\n        string doctorName;\n        string hospitalName;\n        string dateOfBirth;\n        string gender;\n        string phoneNumber;\n        string specialization;\n        string department;\n        string designation;\n        string bmdcNumber;\n    }\n\n    mapping(address => Doctor) private doctors;\n    mapping(address => bool) private isDoctorRegistered;\n\n    event DoctorRegistered(address indexed doctorAddress, string doctorName);\n\n    function registerDoctor(\n        address _doctorAddress,\n        string memory _doctorName,\n        string memory _hospitalName,\n        string memory _dateOfBirth,\n        string memory _gender,\n        string memory _phoneNumber,\n        string memory _specialization,\n        string memory _department,\n        string memory _designation,\n        string memory _bmdcNumber\n    ) external {\n        require(\n            !isDoctorRegistered[_doctorAddress],\n            \"Doctor already registered\"\n        );\n\n        Doctor memory newDoctor = Doctor({\n            doctorAddress: _doctorAddress,\n            doctorName: _doctorName,\n            hospitalName: _hospitalName,\n            dateOfBirth: _dateOfBirth,\n            gender: _gender,\n            phoneNumber: _phoneNumber,\n            specialization: _specialization,\n            department: _department,\n            designation: _designation,\n            bmdcNumber: _bmdcNumber\n        });\n\n        doctors[_doctorAddress] = newDoctor;\n        isDoctorRegistered[_doctorAddress] = true;\n\n        emit DoctorRegistered(_doctorAddress, _doctorName);\n    }\n\n    function getDoctorDetails(\n        address _doctorAddress\n    ) external view returns (Doctor memory) {\n        return doctors[_doctorAddress];\n    }\n\n    function isRegisteredDoctor(\n        address _doctorAddress\n    ) external view returns (bool) {\n        return isDoctorRegistered[_doctorAddress];\n    }\n}\n",
  "sourcePath": "F:\\smart health blockchain system\\src\\contracts\\DoctorRegistration.sol",
  "compiler": {
    "name": "solc",
    "version": "0.8.28+commit.7893614a.Emscripten.clang"
  },
  "schemaVersion": "3.4.16",
  "updatedAt": "2024-12-16T10:42:10.236Z",
  "networkType": "ethereum",
  "devdoc": {
    "kind": "dev",
    "methods": {},
    "version": 1
  },
  "userdoc": {
    "kind": "user",
    "methods": {},
    "version": 1
  }
}