{
  "contractName": "record",
  "abi": [
    {
      "inputs": [
        {
          "internalType": "string",
          "name": "_recordId",
          "type": "string"
        },
        {
          "internalType": "string",
          "name": "_patientName",
          "type": "string"
        },
        {
          "internalType": "string",
          "name": "_doctorName",
          "type": "string"
        },
        {
          "internalType": "address",
          "name": "_doctorAddress",
          "type": "address"
        },
        {
          "internalType": "address",
          "name": "_patientAddress",
          "type": "address"
        },
        {
          "internalType": "uint256",
          "name": "_age",
          "type": "uint256"
        },
        {
          "internalType": "string",
          "name": "_gender",
          "type": "string"
        },
        {
          "internalType": "string",
          "name": "_diagnosis",
          "type": "string"
        },
        {
          "internalType": "string",
          "name": "_prescription",
          "type": "string"
        },
        {
          "internalType": "string",
          "name": "_cid",
          "type": "string"
        },
        {
          "internalType": "string",
          "name": "_docSignature",
          "type": "string"
        }
      ],
      "name": "createEHR",
      "outputs": [],
      "stateMutability": "nonpayable",
      "type": "function"
    },
    {
      "inputs": [],
      "name": "getRecords",
      "outputs": [
        {
          "components": [
            {
              "internalType": "string",
              "name": "recordId",
              "type": "string"
            },
            {
              "internalType": "string",
              "name": "patientName",
              "type": "string"
            },
            {
              "internalType": "string",
              "name": "doctorName",
              "type": "string"
            },
            {
              "internalType": "address",
              "name": "doctorAddress",
              "type": "address"
            },
            {
              "internalType": "address",
              "name": "patientAddress",
              "type": "address"
            },
            {
              "internalType": "uint256",
              "name": "age",
              "type": "uint256"
            },
            {
              "internalType": "string",
              "name": "gender",
              "type": "string"
            },
            {
              "internalType": "string",
              "name": "diagnosis",
              "type": "string"
            },
            {
              "internalType": "string",
              "name": "prescription",
              "type": "string"
            },
            {
              "internalType": "string",
              "name": "cid",
              "type": "string"
            },
            {
              "internalType": "string",
              "name": "docSignature",
              "type": "string"
            }
          ],
          "internalType": "struct record.Record[]",
          "name": "",
          "type": "tuple[]"
        }
      ],
      "stateMutability": "view",
      "type": "function",
      "constant": true
    },
    {
      "inputs": [
        {
          "internalType": "address",
          "name": "doctorAddress",
          "type": "address"
        }
      ],
      "name": "grantPermission",
      "outputs": [],
      "stateMutability": "nonpayable",
      "type": "function"
    },
    {
      "inputs": [
        {
          "internalType": "address",
          "name": "doctorAddress",
          "type": "address"
        }
      ],
      "name": "revokePermission",
      "outputs": [],
      "stateMutability": "nonpayable",
      "type": "function"
    },
    {
      "inputs": [
        {
          "internalType": "address",
          "name": "patientAddress",
          "type": "address"
        },
        {
          "internalType": "address",
          "name": "doctorAddress",
          "type": "address"
        }
      ],
      "name": "canViewRecord",
      "outputs": [
        {
          "internalType": "bool",
          "name": "",
          "type": "bool"
        }
      ],
      "stateMutability": "view",
      "type": "function",
      "constant": true
    },
    {
      "inputs": [
        {
          "internalType": "address",
          "name": "patientAddress",
          "type": "address"
        }
      ],
      "name": "viewRecord",
      "outputs": [
        {
          "components": [
            {
              "internalType": "string",
              "name": "recordId",
              "type": "string"
            },
            {
              "internalType": "string",
              "name": "patientName",
              "type": "string"
            },
            {
              "internalType": "string",
              "name": "doctorName",
              "type": "string"
            },
            {
              "internalType": "address",
              "name": "doctorAddress",
              "type": "address"
            },
            {
              "internalType": "address",
              "name": "patientAddress",
              "type": "address"
            },
            {
              "internalType": "uint256",
              "name": "age",
              "type": "uint256"
            },
            {
              "internalType": "string",
              "name": "gender",
              "type": "string"
            },
            {
              "internalType": "string",
              "name": "diagnosis",
              "type": "string"
            },
            {
              "internalType": "string",
              "name": "prescription",
              "type": "string"
            },
            {
              "internalType": "string",
              "name": "cid",
              "type": "string"
            },
            {
              "internalType": "string",
              "name": "docSignature",
              "type": "string"
            }
          ],
          "internalType": "struct record.Record[]",
          "name": "",
          "type": "tuple[]"
        }
      ],
      "stateMutability": "view",
      "type": "function",
      "constant": true
    }
  ],
  "bytecode": "0x6080604052348015600e575f5ffd5b50611b658061001c5f395ff3fe608060405234801561000f575f5ffd5b5060043610610060575f3560e01c80632d8e327814610064578063489950f8146100805780636b100169146100b05780638eff3c29146100cc578063a3bf5b9a146100ea578063b75bf86514610106575b5f5ffd5b61007e6004803603810190610079919061119d565b610136565b005b61009a600480360381019061009591906111c8565b6101c8565b6040516100a79190611220565b60405180910390f35b6100ca60048036038101906100c591906113a8565b610256565b005b6100d461048b565b6040516100e191906117cb565b60405180910390f35b61010460048036038101906100ff919061119d565b610a55565b005b610120600480360381019061011b919061119d565b610ae7565b60405161012d91906117cb565b60405180910390f35b6001805f3373ffffffffffffffffffffffffffffffffffffffff1673ffffffffffffffffffffffffffffffffffffffff1681526020019081526020015f205f8373ffffffffffffffffffffffffffffffffffffffff1673ffffffffffffffffffffffffffffffffffffffff1681526020019081526020015f205f6101000a81548160ff02191690831515021790555050565b5f60015f8473ffffffffffffffffffffffffffffffffffffffff1673ffffffffffffffffffffffffffffffffffffffff1681526020019081526020015f205f8373ffffffffffffffffffffffffffffffffffffffff1673ffffffffffffffffffffffffffffffffffffffff1681526020019081526020015f205f9054906101000a900460ff16905092915050565b5f6040518061016001604052808d81526020018c81526020018b81526020018a73ffffffffffffffffffffffffffffffffffffffff1681526020018973ffffffffffffffffffffffffffffffffffffffff1681526020018881526020018781526020018681526020018581526020018481526020018381525090505f5f3373ffffffffffffffffffffffffffffffffffffffff1673ffffffffffffffffffffffffffffffffffffffff1681526020019081526020015f2081908060018154018082558091505060019003905f5260205f2090600b02015f909190919091505f820151815f01908161034791906119e8565b50602082015181600101908161035d91906119e8565b50604082015181600201908161037391906119e8565b506060820151816003015f6101000a81548173ffffffffffffffffffffffffffffffffffffffff021916908373ffffffffffffffffffffffffffffffffffffffff1602179055506080820151816004015f6101000a81548173ffffffffffffffffffffffffffffffffffffffff021916908373ffffffffffffffffffffffffffffffffffffffff16021790555060a0820151816005015560c082015181600601908161041f91906119e8565b5060e082015181600701908161043591906119e8565b5061010082015181600801908161044c91906119e8565b5061012082015181600901908161046391906119e8565b5061014082015181600a01908161047a91906119e8565b505050505050505050505050505050565b60605f5f3373ffffffffffffffffffffffffffffffffffffffff1673ffffffffffffffffffffffffffffffffffffffff1681526020019081526020015f20805480602002602001604051908101604052809291908181526020015f905b82821015610a4c578382905f5260205f2090600b0201604051806101600160405290815f8201805461051990611818565b80601f016020809104026020016040519081016040528092919081815260200182805461054590611818565b80156105905780601f1061056757610100808354040283529160200191610590565b820191905f5260205f20905b81548152906001019060200180831161057357829003601f168201915b505050505081526020016001820180546105a990611818565b80601f01602080910402602001604051908101604052809291908181526020018280546105d590611818565b80156106205780601f106105f757610100808354040283529160200191610620565b820191905f5260205f20905b81548152906001019060200180831161060357829003601f168201915b5050505050815260200160028201805461063990611818565b80601f016020809104026020016040519081016040528092919081815260200182805461066590611818565b80156106b05780601f10610687576101008083540402835291602001916106b0565b820191905f5260205f20905b81548152906001019060200180831161069357829003601f168201915b50505050508152602001600382015f9054906101000a900473ffffffffffffffffffffffffffffffffffffffff1673ffffffffffffffffffffffffffffffffffffffff1673ffffffffffffffffffffffffffffffffffffffff168152602001600482015f9054906101000a900473ffffffffffffffffffffffffffffffffffffffff1673ffffffffffffffffffffffffffffffffffffffff1673ffffffffffffffffffffffffffffffffffffffff1681526020016005820154815260200160068201805461077d90611818565b80601f01602080910402602001604051908101604052809291908181526020018280546107a990611818565b80156107f45780601f106107cb576101008083540402835291602001916107f4565b820191905f5260205f20905b8154815290600101906020018083116107d757829003601f168201915b5050505050815260200160078201805461080d90611818565b80601f016020809104026020016040519081016040528092919081815260200182805461083990611818565b80156108845780601f1061085b57610100808354040283529160200191610884565b820191905f5260205f20905b81548152906001019060200180831161086757829003601f168201915b5050505050815260200160088201805461089d90611818565b80601f01602080910402602001604051908101604052809291908181526020018280546108c990611818565b80156109145780601f106108eb57610100808354040283529160200191610914565b820191905f5260205f20905b8154815290600101906020018083116108f757829003601f168201915b5050505050815260200160098201805461092d90611818565b80601f016020809104026020016040519081016040528092919081815260200182805461095990611818565b80156109a45780601f1061097b576101008083540402835291602001916109a4565b820191905f5260205f20905b81548152906001019060200180831161098757829003601f168201915b50505050508152602001600a820180546109bd90611818565b80601f01602080910402602001604051908101604052809291908181526020018280546109e990611818565b8015610a345780601f10610a0b57610100808354040283529160200191610a34565b820191905f5260205f20905b815481529060010190602001808311610a1757829003601f168201915b505050505081525050815260200190600101906104e8565b50505050905090565b5f60015f3373ffffffffffffffffffffffffffffffffffffffff1673ffffffffffffffffffffffffffffffffffffffff1681526020019081526020015f205f8373ffffffffffffffffffffffffffffffffffffffff1673ffffffffffffffffffffffffffffffffffffffff1681526020019081526020015f205f6101000a81548160ff02191690831515021790555050565b60603373ffffffffffffffffffffffffffffffffffffffff168273ffffffffffffffffffffffffffffffffffffffff161480610b295750610b2882336101c8565b5b610b68576040517f08c379a0000000000000000000000000000000000000000000000000000000008152600401610b5f90611b11565b60405180910390fd5b5f5f8373ffffffffffffffffffffffffffffffffffffffff1673ffffffffffffffffffffffffffffffffffffffff1681526020019081526020015f20805480602002602001604051908101604052809291908181526020015f905b82821015611127578382905f5260205f2090600b0201604051806101600160405290815f82018054610bf490611818565b80601f0160208091040260200160405190810160405280929190818152602001828054610c2090611818565b8015610c6b5780601f10610c4257610100808354040283529160200191610c6b565b820191905f5260205f20905b815481529060010190602001808311610c4e57829003601f168201915b50505050508152602001600182018054610c8490611818565b80601f0160208091040260200160405190810160405280929190818152602001828054610cb090611818565b8015610cfb5780601f10610cd257610100808354040283529160200191610cfb565b820191905f5260205f20905b815481529060010190602001808311610cde57829003601f168201915b50505050508152602001600282018054610d1490611818565b80601f0160208091040260200160405190810160405280929190818152602001828054610d4090611818565b8015610d8b5780601f10610d6257610100808354040283529160200191610d8b565b820191905f5260205f20905b815481529060010190602001808311610d6e57829003601f168201915b50505050508152602001600382015f9054906101000a900473ffffffffffffffffffffffffffffffffffffffff1673ffffffffffffffffffffffffffffffffffffffff1673ffffffffffffffffffffffffffffffffffffffff168152602001600482015f9054906101000a900473ffffffffffffffffffffffffffffffffffffffff1673ffffffffffffffffffffffffffffffffffffffff1673ffffffffffffffffffffffffffffffffffffffff16815260200160058201548152602001600682018054610e5890611818565b80601f0160208091040260200160405190810160405280929190818152602001828054610e8490611818565b8015610ecf5780601f10610ea657610100808354040283529160200191610ecf565b820191905f5260205f20905b815481529060010190602001808311610eb257829003601f168201915b50505050508152602001600782018054610ee890611818565b80601f0160208091040260200160405190810160405280929190818152602001828054610f1490611818565b8015610f5f5780601f10610f3657610100808354040283529160200191610f5f565b820191905f5260205f20905b815481529060010190602001808311610f4257829003601f168201915b50505050508152602001600882018054610f7890611818565b80601f0160208091040260200160405190810160405280929190818152602001828054610fa490611818565b8015610fef5780601f10610fc657610100808354040283529160200191610fef565b820191905f5260205f20905b815481529060010190602001808311610fd257829003601f168201915b5050505050815260200160098201805461100890611818565b80601f016020809104026020016040519081016040528092919081815260200182805461103490611818565b801561107f5780601f106110565761010080835404028352916020019161107f565b820191905f5260205f20905b81548152906001019060200180831161106257829003601f168201915b50505050508152602001600a8201805461109890611818565b80601f01602080910402602001604051908101604052809291908181526020018280546110c490611818565b801561110f5780601f106110e65761010080835404028352916020019161110f565b820191905f5260205f20905b8154815290600101906020018083116110f257829003601f168201915b50505050508152505081526020019060010190610bc3565b505050509050919050565b5f604051905090565b5f5ffd5b5f5ffd5b5f73ffffffffffffffffffffffffffffffffffffffff82169050919050565b5f61116c82611143565b9050919050565b61117c81611162565b8114611186575f5ffd5b50565b5f8135905061119781611173565b92915050565b5f602082840312156111b2576111b161113b565b5b5f6111bf84828501611189565b91505092915050565b5f5f604083850312156111de576111dd61113b565b5b5f6111eb85828601611189565b92505060206111fc85828601611189565b9150509250929050565b5f8115159050919050565b61121a81611206565b82525050565b5f6020820190506112335f830184611211565b92915050565b5f5ffd5b5f5ffd5b5f601f19601f8301169050919050565b7f4e487b71000000000000000000000000000000000000000000000000000000005f52604160045260245ffd5b61128782611241565b810181811067ffffffffffffffff821117156112a6576112a5611251565b5b80604052505050565b5f6112b8611132565b90506112c4828261127e565b919050565b5f67ffffffffffffffff8211156112e3576112e2611251565b5b6112ec82611241565b9050602081019050919050565b828183375f83830152505050565b5f611319611314846112c9565b6112af565b9050828152602081018484840111156113355761133461123d565b5b6113408482856112f9565b509392505050565b5f82601f83011261135c5761135b611239565b5b813561136c848260208601611307565b91505092915050565b5f819050919050565b61138781611375565b8114611391575f5ffd5b50565b5f813590506113a28161137e565b92915050565b5f5f5f5f5f5f5f5f5f5f5f6101608c8e0312156113c8576113c761113b565b5b5f8c013567ffffffffffffffff8111156113e5576113e461113f565b5b6113f18e828f01611348565b9b505060208c013567ffffffffffffffff8111156114125761141161113f565b5b61141e8e828f01611348565b9a505060408c013567ffffffffffffffff81111561143f5761143e61113f565b5b61144b8e828f01611348565b995050606061145c8e828f01611189565b985050608061146d8e828f01611189565b97505060a061147e8e828f01611394565b96505060c08c013567ffffffffffffffff81111561149f5761149e61113f565b5b6114ab8e828f01611348565b95505060e08c013567ffffffffffffffff8111156114cc576114cb61113f565b5b6114d88e828f01611348565b9450506101008c013567ffffffffffffffff8111156114fa576114f961113f565b5b6115068e828f01611348565b9350506101208c013567ffffffffffffffff8111156115285761152761113f565b5b6115348e828f01611348565b9250506101408c013567ffffffffffffffff8111156115565761155561113f565b5b6115628e828f01611348565b9150509295989b509295989b9093969950565b5f81519050919050565b5f82825260208201905092915050565b5f819050602082019050919050565b5f81519050919050565b5f82825260208201905092915050565b8281835e5f83830152505050565b5f6115d08261159e565b6115da81856115a8565b93506115ea8185602086016115b8565b6115f381611241565b840191505092915050565b61160781611162565b82525050565b61161681611375565b82525050565b5f61016083015f8301518482035f86015261163782826115c6565b9150506020830151848203602086015261165182826115c6565b9150506040830151848203604086015261166b82826115c6565b915050606083015161168060608601826115fe565b50608083015161169360808601826115fe565b5060a08301516116a660a086018261160d565b5060c083015184820360c08601526116be82826115c6565b91505060e083015184820360e08601526116d882826115c6565b9150506101008301518482036101008601526116f482826115c6565b91505061012083015184820361012086015261171082826115c6565b91505061014083015184820361014086015261172c82826115c6565b9150508091505092915050565b5f611744838361161c565b905092915050565b5f602082019050919050565b5f61176282611575565b61176c818561157f565b93508360208202850161177e8561158f565b805f5b858110156117b9578484038952815161179a8582611739565b94506117a58361174c565b925060208a01995050600181019050611781565b50829750879550505050505092915050565b5f6020820190508181035f8301526117e38184611758565b905092915050565b7f4e487b71000000000000000000000000000000000000000000000000000000005f52602260045260245ffd5b5f600282049050600182168061182f57607f821691505b602082108103611842576118416117eb565b5b50919050565b5f819050815f5260205f209050919050565b5f6020601f8301049050919050565b5f82821b905092915050565b5f600883026118a47fffffffffffffffffffffffffffffffffffffffffffffffffffffffffffffffff82611869565b6118ae8683611869565b95508019841693508086168417925050509392505050565b5f819050919050565b5f6118e96118e46118df84611375565b6118c6565b611375565b9050919050565b5f819050919050565b611902836118cf565b61191661190e826118f0565b848454611875565b825550505050565b5f5f905090565b61192d61191e565b6119388184846118f9565b505050565b5b8181101561195b576119505f82611925565b60018101905061193e565b5050565b601f8211156119a05761197181611848565b61197a8461185a565b81016020851015611989578190505b61199d6119958561185a565b83018261193d565b50505b505050565b5f82821c905092915050565b5f6119c05f19846008026119a5565b1980831691505092915050565b5f6119d883836119b1565b9150826002028217905092915050565b6119f18261159e565b67ffffffffffffffff811115611a0a57611a09611251565b5b611a148254611818565b611a1f82828561195f565b5f60209050601f831160018114611a50575f8415611a3e578287015190505b611a4885826119cd565b865550611aaf565b601f198416611a5e86611848565b5f5b82811015611a8557848901518255600182019150602085019450602081019050611a60565b86831015611aa25784890151611a9e601f8916826119b1565b8355505b6001600288020188555050505b505050505050565b5f82825260208201905092915050565b7f4e6f7420617574686f72697a656420746f2076696577207265636f72647300005f82015250565b5f611afb601e83611ab7565b9150611b0682611ac7565b602082019050919050565b5f6020820190508181035f830152611b2881611aef565b905091905056fea2646970667358221220a9cb2e31a586849f8ac579bdfe8e6caed50c103b5fbc3702dded81c1a9eb156164736f6c634300081c0033",
  "immutableReferences": {},
  "source": "// SPDX-License-Identifier: MIT\npragma solidity ^0.8.19;\n\ncontract record {\n    struct Record {\n        string recordId;\n        string patientName;\n        string doctorName;\n        address doctorAddress;\n        address patientAddress;\n        uint256 age;\n        string gender;\n        string diagnosis;\n        string prescription;\n        string cid;\n        string docSignature;\n    }\n    mapping(address => Record[]) private records;\n    mapping(address => mapping(address => bool)) private doctorPermissions;\n\n    function createEHR(\n        string memory _recordId,\n        string memory _patientName,\n        string memory _doctorName,\n        address _doctorAddress,\n        address _patientAddress,\n        uint256 _age,\n        string memory _gender,\n        string memory _diagnosis,\n        string memory _prescription,\n        string memory _cid,\n        string memory _docSignature\n    ) public {\n        Record memory newRecord = Record(\n            _recordId,\n            _patientName,\n            _doctorName,\n            _doctorAddress,\n            _patientAddress,\n            _age,\n            _gender,\n            _diagnosis,\n            _prescription,\n            _cid,\n            _docSignature\n        );\n        records[msg.sender].push(newRecord);\n    }\n\n    function getRecords() public view returns (Record[] memory) {\n        return records[msg.sender];\n    }\n\n    function grantPermission(address doctorAddress) public {\n        doctorPermissions[msg.sender][doctorAddress] = true;\n    }\n\n    function revokePermission(address doctorAddress) public {\n        doctorPermissions[msg.sender][doctorAddress] = false;\n    }\n\n    function canViewRecord(\n        address patientAddress,\n        address doctorAddress\n    ) public view returns (bool) {\n        return doctorPermissions[patientAddress][doctorAddress];\n    }\n\n    function viewRecord(\n        address patientAddress\n    ) public view returns (Record[] memory) {\n        require(\n            patientAddress == msg.sender ||\n                canViewRecord(patientAddress, msg.sender),\n            \"Not authorized to view records\"\n        );\n        return records[patientAddress];\n    }\n}\n",
  "sourcePath": "F:\\smart health blockchain system\\src\\contracts\\record.sol",
  "compiler": {
    "name": "solc",
    "version": "0.8.28+commit.7893614a.Emscripten.clang"
  },
  "schemaVersion": "3.4.16",
  "updatedAt": "2024-12-16T10:43:21.837Z",
  "networkType": "ethereum",
  "devdoc": {
    "kind": "dev",
    "methods": {},
    "version": 1
  },
  "userdoc": {
    "kind": "user",
    "methods": {},
    "version": 1
  }
}